:040000000CEF00F011
:10000800FACF01F0FBCF02F0E9CF03F02BED0EF0B1
:040018001FEF11F0D5
:1010000000FFFFE20496002003000A0D4B77616E9B
:10101000746C656E20415053433132393920736905
:101020006D706C6520637572766520666F6C6C6F91
:10103000776572202D2D2077697468206572726F34
:101040007220636F6465730A0D00203C72657365DE
:10105000743E20003C53544B46554C3E003C574494
:101060005420544F3E005C3C4C56443E003C424FA2
:10107000523E003C504F523E000031EC11F00FC088
:1010800013F010C014F0030EF66E100EF76E000E83
:10109000F86E0900F5CF15F00A00F5CF16F06BECED
:1010A0000FF014507BE1020E135CD8B077D047BE2E
:1010B00006D0400E465C060E4758D8B008D047BE52
:1010C00006D0410E465C060E4758D8B024D047BE25
:1010D0000FD0400E465C060E4758D8A009D020EE2F
:1010E00002F03550D9263650DA22000EDBBE13D07E
:1010F00047AE54D0C10E465CF90E4758D8B04ED01A
:1011000020EE02F03550D9263650DA22DF50800A20
:101110007F0FD8A043D049BE06D0C90E485C0C0E44
:101120004958D8B008D049AE2AD0370E485CF30EE3
:101130004958D8B024D049BE0FD0C90E485C0C0E17
:101140004958D8A009D020EE02F03550D9263650A3
:10115000DA22000EDBBE13D049AE20D0370E485C39
:10116000F30E4958D8B01AD020EE02F03550D926E7
:101170003650DA22DF50800A7F0FD8A00FD020EE41
:1011800002F03550D9263650DA22DF50376E37500C
:101190004826000E37BEFF0E492200D020EE02F096
:1011A0003550D9263650DA2210EE01F03550E126BE
:1011B0003650E222DE50E618D8B458D020EE01F0C6
:1011C0003550D9263650DA22DF50376E386A37BEAE
:1011D0003806371E381E374A382A20EE02F03550BE
:1011E000D9263650DA22DF50396E375039241D6E39
:1011F000000E39BEFF0E38201E6E31EC11F00FC00C
:1012000015F010C016F0010EF66E100EF76E000EFF
:10121000F86E0900F5CF13F00A00F5CF14F03DEC9D
:101220000FF013C01FF014C020F049EC10F01DC0E7
:1012300044F01EC045F020EE01F03550D92636505E
:10124000DA2235C0E1FF36C0E2FFDFCFE7FF20EE54
:1012500002F03550D9263650DA2210EE01F0355022
:10126000E1263650E222DFCFE7FF00D0F2A45ED0C5
:1012700035C0D9FF36C0DAFFDF50376E386A37BE67
:101280003806371E381E374A382A20EE01F035500E
:10129000D9263650DA22DF50396E375039241D6E88
:1012A000000E39BEFF0E38201E6EFF0E136EFF0EAD
:1012B000146E000E156E000E166E010EF66E100EF8
:1012C000F76E000EF86E0900F5CF3AF00900F5CF81
:1012D0003BF03AC00FF03BC010F0116A126ADDEC2F
:1012E0000BF00FC01FF010C020F049EC10F01DC033
:1012F00044F01EC045F020EE01F03550D92636509E
:10130000DA2235C0E1FF36C0E2FFDFCFE7FF20EE93
:1013100002F03550D9263650DA2210EE01F0355061
:10132000E1263650E222DFCFE7FFF29420EE02F012
:101330003550D9263650DA22DF501D6E1E6A1DBE8A
:101340001E06050EF66E100EF76E000EF86E090002
:10135000F5CF1FF00A00F5CF20F049EC10F048500F
:101360001D2649501E2244501D24466E45501E2005
:10137000476E46C02BF047C02CF0000E2D6EC2EC1D
:1013800009F01200020E326EBC0E316E020E346E87
:10139000BC0E336E010E2F6E010E306E2CAE23D0BC
:1013A0002BC01DF02CC01EF0000E206E0F0E1F6E05
:1013B00049EC10F01DC023F01EC024F0000E266E74
:1013C000100E256E59EC0DF0235031262450322298
:1013D0002BC023F02CC024F0000E266E100E256EBC
:1013E00059EC0DF022D02BC023F02CC024F0000EBD
:1013F000266E100E256E59EC0DF023503126245028
:1014000032222BC01DF02CC01EF0000E206E0F0EDD
:101410001F6E49EC10F01DC023F01EC024F0000E1A
:10142000266E100E256E59EC0DF02350335E2450BD
:10143000345A00D02D50D8B41BD031C023F032C064
:1014400024F02DC025F0266A59EC0DF023C031F0B0
:1014500024C032F033C023F034C024F02DC025F076
:10146000266A59EC0DF023C033F024C034F000D0CC
:1014700032AE10D0000E2F6E31C01DF032C01EF003
:10148000FF0E206E1F6849EC10F01DC031F01EC029
:1014900032F000D032BE0BD0210E315C030E325838
:1014A000D8A005D0030E326E200E316E00D031C0B0
:1014B0000FF032C010F0B2EC0FF02F50D8A402D0D1
:1014C000829002D0828000D082B003D02E6A2E2A71
:1014D00001D02E6A2E4684502E18FD0B2E18846ED5
:1014E00034AE10D0000E306E33C01DF034C01EF08C
:1014F000FF0E206E1F6849EC10F01DC033F01EC0B7
:1015000034F000D034BE0BD0210E335C030E3458BF
:10151000D8A005D0030E346E200E336E00D033C039
:101520000FF034C010F0CFEC0FF03050D8A402D040
:10153000829A02D0828A00D082BA03D02E6A2E2AE2
:1015400001D02E6A84502E18FE0B2E18846E1200C5
:1015500020EE02F03950D9263A50DA22DF50800AC4
:101560007E0FD8B00ED020EE01F03950D9263A5077
:10157000DA22DF50800A7E0FD8B003D04D50D8B4A5
:1015800004D0010E04EC0DF095D020EE02F039509D
:10159000D9263A50DA22DF50800A810FD8A00ED027
:1015A00020EE01F03950D9263A50DA22DF50800A75
:1015B000810FD8A003D04C50D8B404D0000E04EC56
:1015C0000DF078D0000E106E000E0F6E3AEC11F098
:1015D000F2940DD04CEC0CF0ECEC0DF0000E2C6EF7
:1015E000000E2B6E000E2D6EC2EC09F000D04E5096
:1015F0001F0B0009D8A40CD0F2A4ECD731EC11F0E9
:101600003B0E0F5CE80E1058D8B002D0E3D700D0E4
:101610004E501F0B0009D8A44DD083EC10F0410EA2
:101620003B6EEE0EE82EFED73B2EFCD700D0060E0A
:101630002C6E400E2B6E090EF66E100EF76E000E1D
:10164000F86E0800F5CF2DF0C2EC09F0000E3D6EEB
:10165000000E3C6E070EF66E100EF76E000EF86E62
:101660000900F5503C5C0900F5503D58D8B01BD03E
:1016700001D019D00B0E3B6E5F0EE82EFED73B2E2D
:10168000FCD700D03C4A3D2AE5D70DD04CEC0CF0FD
:10169000ECEC0DF0000E2C6E000E2B6E000E2D6E7D
:1016A000C2EC09F000D04E501F0B0009D8A402D0A4
:1016B000EDD700D0120041C03EF042C03FF043C021
:1016C00040F0A4EC0DF00A0E0F6E100E106E08EC38
:1016D00010F00400020E4B6E3F0E4A6E160EA4EC84
:1016E00010F0000E106E000E0F6E3AEC11F0F29436
:1016F00000D04CEC0CF027D0010E23D0020E21D0EC
:10170000030E1FD0040E1DD0406844D0FE0E19D029
:10171000FD0E17D0FC0E15D0010E4D6E000E4C6E56
:1017200039D0010E4C6E000E4D6E34D03E0E396E27
:10173000000E3A6EA8EC0AF02DD06AEC0EF02AD01A
:10174000000E406E27D04E501F0B000AD8B4EED7C3
:10175000010AD8B4D7D7030AD8B4D0D7010AD8B46D
:10176000CFD7050AD8B4C8D7010AD8B4D5D70F0A3D
:10177000D8B4CCD7040AD8B4C7D71C0AD8B4CAD7AF
:10178000080AD8B4C5D7040AD8B4CBD7030AD8B44A
:10179000D4D7D6D7ECEC0DF03E0E356E000E366E7B
:1017A0003DEC08F0040059EC11F00009D8B4A1D7C1
:1017B000B4EC10F09ED70CEF00F0000E186E16AED1
:1017C0000BD0161E151E141E136C000E14221522AB
:1017D0001622010E186E00D012AE0BD0121E111E72
:1017E000101E0F6C000E102211221222010E181A68
:1017F00000D0000E196E000E1A6E000E1B6E000E49
:101800001C6E1350141015101610D8B42FD0010EE2
:10181000176E07D0D8901336143615361636172A99
:1018200000D016BE02D0F6D700D0D89019361A369E
:101830001B361C3613500F5C14501058155011589D
:1018400016501258D8A00AD013500F5E1450105AD8
:101850001550115A1650125A198000D0D8901632CD
:10186000153214321332172EE0D700D01850D8B4E6
:1018700009D01C1E1B1E1A1E196C000E1A221B22D8
:101880001C2200D019C00FF01AC010F01BC011F0BC
:101890001CC012F000D01200870E35EC10F013506F
:1018A0004A5C14504B58D8B003D0166A162A01D09F
:1018B000166A163A4E501618EF0B16184E6E8F0E0B
:1018C00035EC10F013504A5C14504B58D8B003D08C
:1018D000166A162A01D0166A1646164616464E5045
:1018E0001618F70B16184E6E970E35EC10F01350B5
:1018F0004A5C14504B58D8B003D0166A162A01D04F
:10190000166A164616464E501618FB0B16184E6EE3
:101910009F0E35EC10F013504A5C14504B58D8B061
:1019200003D0166A162A01D0166A16464E501618AB
:10193000FD0B16184E6EA70E35EC10F013504A5CD6
:1019400014504B58D8B003D0166A162A01D0166A24
:101950004E501618FE0B16184E6E1200000E146E26
:10196000000E156E000E166E000E176E000E186E2D
:10197000000E196E000E1A6E000E1B6E5CEC11F05C
:10198000730E0F6E100E106E08EC10F083908382B1
:101990008384838683882DD00400300E181817E1C5
:1019A000750E19181A101B10D8A411D0000E186E3D
:1019B000000E196E000E1A6E000E1B6E010E14261C
:1019C000000E152216221722839083820CD0980EC7
:1019D000181809E13A0E19181A101B10D8A403D0D0
:1019E0008380839200D0010E1826000E19221A223D
:1019F0001B2217501610151006E10A0E145CD8B001
:101A000002D0CAD700D01200366E83EC10F0410E1F
:101A1000356EEE0EE82EFED7352EFCD700D03650B0
:101A2000D8B422D0060E386E400E376E12D04CEC71
:101A30000CF0ECEC0DF037C02BF038C02CF0000EA1
:101A40002D6EC2EC09F04EA404D03706D8A038069B
:101A500000D04EB606D037503810D8B402D0E7D7F1
:101A600000D0000E4D6E20D0F90E386EC00E376ECD
:101A700011D04CEC0CF0ECEC0DF037C02BF038C072
:101A80002CF0000E2D6EC2EC09F04EA403D0374AA4
:101A9000382A00D04EB206D037503810D8B402D011
:101AA000E8D700D0000E4C6E000E496E000E486E56
:101AB0001200000E286E26AE07D0256C261ED8B068
:101AC000262A010E286E00D024AE07D0236C241ED7
:101AD000D8B0242A010E281A00D0000E2A6E000E5B
:101AE000296E25502610D8B421D0010E276E05D0BE
:101AF000D89025362636272A00D026BE02D0F8D721
:101B000000D0D89029362A362550235C26502458F8
:101B1000D8A006D02550235E2650245A298000D014
:101B2000D89026322532272EECD700D02850D8B4B2
:101B300005D0296C2A1ED8B02A2A00D029C023F04B
:101B40002AC024F000D012004E904E924E944E9631
:101B50004E98D08EF29EF29C1FEC10F062EC11F0C9
:101B6000000E106E100E0F6E3C0EA5EC0EF06BEC1E
:101B700011F0000E836E91EC0FF04BEC11F068EC5D
:101B800011F065EC11F05FEC11F0FDEC10F00C0EB3
:101B90000F6E0A0E106EA70E0EEC0FF0829A849054
:101BA00082908492060EEFEC10F0C70E28EC11F034
:101BB000C70EECEC0FF0000E106E000E0F6ECFECA7
:101BC0000FF0000E106E000E0F6EB2EC0FF0020E52
:101BD0004B6E000E4A6E12004EB803D00F6A0F2AE9
:101BE00001D00F6A83500F18FE0B0F18836E4EB68C
:101BF00003D00F6A0F2A01D00F6A0F4683500F18C7
:101C0000FD0B0F18836E4EB403D00F6A0F2A01D05C
:101C10000F6A0F460F4683500F18FB0B0F18836E89
:101C20004EB203D00F6A0F2A01D00F6A0F460F463B
:101C30000F4683500F18F70B0F18836E4EB003D06A
:101C40000F6A0F2A01D00F6A0F3A83500F18EF0B5B
:101C50000F18836E12000600EACF04F0E1CF05F002
:101C6000E2CF06F0D9CF07F0DACF08F0F3CF09F0D2
:101C7000F4CF0AF0F6CF0BF0F7CF0CF0F8CF0DF061
:101C8000F5CF0EF0A1949268936894689568030E5E
:101C9000966E010E4F6EA094D2980EC0F5FF0DC047
:101CA000F8FF0CC0F7FF0BC0F6FF0AC0F4FF09C035
:101CB000F3FF08C0DAFF07C0D9FF06C0E2FF05C086
:101CC000E1FF04C0EAFF03C0E9FF02C0FBFF01C05F
:101CD000FAFF1100000E106E000E0F6E3AEC11F0BC
:101CE000F2940DD04CEC0CF0ECEC0DF0000E2C6EE0
:101CF000000E2B6E000E2D6EC2EC09F000D0000E0F
:101D0000356EF2B403D0010E356E00D04E5035184A
:101D1000E00B35184E6E4E501F0B0009D8A4E2D7C9
:101D20004E804E824E844E864E8883EC10F005D055
:101D30004CEC0CF0ECEC0DF000D04E804E824E845A
:101D40004E864E88F5D700D01200116E000EAC6E94
:101D5000000EAB6E11A002D0AC8800D011A203D04F
:101D6000AC8CAB8C00D011A402D0AC8E00D011A6EC
:101D700002D0AB8802D0AB8A00D011B8AC849E9858
:101D800011AA02D0AB8600D011AC02D09D8A01D03E
:101D90009D9A9E9A11AE02D09D8801D09D980FC049
:101DA000AFFF1050B06EAC8AAB8E949C948EACB8E2
:101DB000ACBE02D0948C00D01200000E0F6E000E4C
:101DC000106E000E116E000E126E0400300E0F1811
:101DD00011E1750E101811101210D8A40BD0000EBE
:101DE0000F6E000E106E000E116E000E126E8390BC
:101DF00083820CD0980E0F1809E13A0E10181110BA
:101E00001210D8A403D08380839200D0010E0F2635
:101E1000000E102211221222D8D71200136E000ECB
:101E2000C26E000EC06ED8900F303C0BC26E0FC059
:101E300011F0113AF00E1116300E111610500F0B52
:101E40001110C16E13C011F0D8901136D890113610
:101E5000380E111613C012F0123A0F0E1216070E9A
:101E600012161350800B12101110C06E0FAE03D05B
:101E70009E9C9D8CF28CC2801200000E186E000E8B
:101E8000176E15501610D8B421D0010E196E05D05A
:101E9000D89015361636192A00D016BE02D0F8D7BB
:101EA00000D0D890173618361550135C16501458B9
:101EB000D8A006D01550135E1650145A178000D0C3
:101EC000D89016321532192EECD700D017C013F067
:101ED00018C014F0120015501610D8B41DD0010E01
:101EE000176E05D0D89015361636172A00D016BEB4
:101EF00002D0F8D700D01550135C16501458D8A053
:101F000005D01550135E1650145A00D0D8901632D2
:101F10001532172EF0D700D013C013F014C014F0F0
:101F2000120070EC10F00009D8B403D0AEEC0CF045
:101F300018D009EC11F00009D8B403D094EC10F0DB
:101F400010D05DEC10F00009D8B403D0D3EC10F041
:101F500008D0FCAE03D0C4EC10F003D0E1EC10F0DC
:101F600000D012000FC011F010C012F0060ED89071
:101F700011361236E82EFBD711C013F012C014F040
:101F800014C0BBFF13C011F0D8901132D890113299
:101F9000300E1116BA50CF0B1110BA6E12000FC0CE
:101FA00011F010C012F0060ED89011361236E82E3D
:101FB000FBD711C013F012C014F014C0BEFF13C041
:101FC00011F0D8901132D8901132300E1116BD5048
:101FD000CF0B1110BD6E12000F6E0C0EBA6E050EF7
:101FE000F66E000EF76E300EF86E08000001F5A0D8
:101FF00002D0106802D0000E106E1050D8B402D07B
:10200000949201D09396CA940FC0CBFFCA84120059
:10201000110E116E000E126E04D0135070EC11F000
:1020200000D00FC0F6FF10C0F7FF0F4A102AF86A61
:102030000800F5CF13F01350D8A4EFD71200D38CBB
:10204000D38AD3889B8C000E106E000E0F6E10BECC
:1020500008D0F40E0F5C010E1058D8B005D001D096
:1020600003D00F4A102AF3D71200156E155014EC46
:1020700011F06EEC11F000D052EC11F00009D8A470
:10208000FBD743EC11F00FC013F010C014F000D0D8
:1020900012001D501F02F3CF21F0F4CF22F01D508B
:1020A0002002F35022261E501F02F350222621C088
:1020B0001DF022C01EF000D01200D0A20ED0D0A47D
:1020C0000AD0D0A006D0D0A602D003D008D0010EEE
:1020D00006D0000E04D0000E02D0000E00D0120078
:1020E000D0B20ED0D0A40AD0D0B006D0D0B602D094
:1020F00003D008D0010E06D0000E04D0000E02D08E
:10210000000E00D01200030E106E200E0F6ECFECEA
:102110000FF0030E106E200E0F6EB2EC0FF08492D3
:1021200082908490829A12005CEC11F06D0E0F6E1A
:10213000100E106E08EC10F08380838283848386F7
:102140008398DDEC0EF012000F6E0F507F0BD56EF2
:10215000000ED76E000ED66EF2940FAE02D0F28A49
:1021600001D0F29AD58E1200660E0F6E100E106E10
:1021700008EC10F06BEC11F08390838283848396DB
:102180008388DDEC0EF01200FC9E540E0F6E100ED4
:10219000106E08EC10F0839083828394838683987A
:1021A000DDEC0EF012005D0E0F6E100E106E08ECDE
:1021B00010F083908382839483868388DDEC0EF015
:1021C00012004A0E0F6E100E106E08EC10F0839085
:1021D0008382839483968398DDEC0EF012000F6E59
:1021E0000F50FB0BCA6E000ECC6E9E920FAE02D04B
:1021F0009D8201D09D92CA841200D08ED288A28482
:10220000D29ED286D284D282D290A194A084F28E21
:102210001200D0B006D0D0B202D003D004D0010E4C
:1022200002D0000E00D01200106EC2CF0FF0C30E0D
:102230000F16D89010303C0B0F10C26E120000EE3B
:1022400041F00F0EEE6AE806FDE100015BEF0BF0D6
:102250000F6E0C0EBD129494CA940FC0CBFFCA84AB
:102260001200D6CF11F0D7CF12F011C00FF012C06C
:1022700010F012000FC011F010C012F012C0D7FF02
:1022800011C0D6FF1200C450116EC3500F6E11C0A2
:1022900010F000D012009490949294949496949894
:1022A000949A1200C2A202D0010E02D0000E00D0F9
:1022B00012004F5000D01200D082D0801200000EC9
:1022C000966E1200949C948E1200C00E936E1200B3
:1022D000EF0E926E1200600E956E1200C282120016
:0222E0001200EA
:020000040020DA
:08000000FFFFFFFFFFFFFFFF00
:020000040030CA
:0E000000FF080306FF0381FF0FC00FE00F4053
:00000001FF
