:040000000CEF00F011
:10000800FACF01F0FBCF02F0E9CF03F0DBED0CF003
:0400180083EF0FF073
:1010000000E0FC2BFD76FD00008A02D502200300E3
:1010100000000000000A0D4B77616E746C656E2055
:1010200041505343313239392073696D706C6520FA
:10103000637572766520666F6C6C6F776572202DB4
:101040002D2077697468206572726F7220636F64F7
:1010500065730A0D00203C72657365743E20003C88
:1010600053544B46554C3E003C57445420544F3E3D
:10107000005C3C4C56443E003C424F523E003C50CB
:101080004F523E0000009EEC0FF00FC013F010C056
:1010900014F0110EF66E100EF76E000EF86E0900C9
:1010A000F5CF15F00A00F5CF16F0E0EC0DF0135077
:1010B0001410D8A477D044BE06D0400E435C060E70
:1010C0004458D8B008D044BE06D0410E435C060E4A
:1010D0004458D8B024D044BE0FD0400E435C060E16
:1010E0004458D8A009D020EE02F03450D92635500B
:1010F000DA22000EDBBE13D044AE54D0C10E435CE6
:10110000F90E4458D8B04ED020EE02F03450D92613
:101110003550DA22DF50800A7F0FD8A043D046BE78
:1011200006D0C90E455C0C0E4658D8B008D046AE65
:101130002AD0370E455CF30E4658D8B024D046BEB0
:101140000FD0C90E455C0C0E4658D8A009D020EE31
:1011500002F03450D9263550DA22000EDBBE13D00F
:1011600046AE20D0370E455CF30E4658D8B01AD0A4
:1011700020EE02F03450D9263550DA22DF50800AB2
:101180007F0FD8A00FD020EE02F03450D926355072
:10119000DA22DF50366E36504526000E36BEFF0E80
:1011A000462200D020EE02F03450D9263550DA2203
:1011B00010EE01F03450E1263550E222DE50E61800
:1011C000D8B458D020EE01F03450D9263550DA2268
:1011D000DF50366E376A36BE3706361E371E364A41
:1011E000372A20EE02F03450D9263550DA22DF506B
:1011F000386E365038241D6E000E38BEFF0E372074
:101200001E6E9EEC0FF00FC015F010C016F00F0E02
:10121000F66E100EF76E000EF86E0900F5CF13F0A3
:101220000A00F5CF14F0B2EC0DF013C01FF014C09B
:1012300020F0BEEC0EF01DC041F01EC042F020EECA
:1012400001F03450D9263550DA2234C0E1FF35C0E0
:10125000E2FFDFCFE7FF20EE02F03450D926355011
:10126000DA2210EE01F03450E1263550E222DFCFD1
:10127000E7FF00D0F2A444D034C0D9FF35C0DAFF74
:10128000DF50366E376A36BE3706361E371E364A90
:10129000372A20EE01F03450D9263550DA22DF50BB
:1012A000386E365038241D6E000E38BEFF0E3720C3
:1012B0001E6EFF0E136EFF0E146E000E156E000EE6
:1012C000166E0F0EF66E100EF76E000EF86E090019
:1012D000F5CF39F00900F5CF3AF039C00FF03AC038
:1012E00010F0116A126AE2EC0AF00FC01FF010C091
:1012F00020F0BEEC0EF01DC041F01EC042F0F29492
:1013000020EE02F03450D9263550DA22DF501D6E1F
:101310001E6A1DBE1E06130EF66E100EF76E000E30
:10132000F86E0900F5CF1FF00A00F5CF20F0BEECF3
:101330000EF045501D2646501E2241501D24436E7E
:1013400042501E20446E43C02BF044C02CF0AAEC47
:1013500009F01200020E316EBC0E306E020E336EBA
:10136000BC0E326E010E2E6E010E2F6E2CAE23D0EF
:101370002BC01DF02CC01EF0000E206E0F0E1F6E35
:10138000BEEC0EF01DC023F01EC024F0000E266E31
:10139000100E256E09EC0CF023503026245031221B
:1013A0002BC023F02CC024F0000E266E100E256EEC
:1013B00009EC0CF022D02BC023F02CC024F0000E3E
:1013C000266E100E256E09EC0CF0235030262450AA
:1013D00031222BC01DF02CC01EF0000E206E0F0E0F
:1013E0001F6EBEEC0EF01DC023F01EC024F0000ED8
:1013F000266E100E256E09EC0CF02350325E245040
:10140000335A00D031AE10D0000E2E6E30C01DF019
:1014100031C01EF0FF0E206E1F68BEEC0EF01DC026
:1014200030F01EC031F000D031BE0BD0210E305C48
:10143000030E3158D8A005D0030E316E200E306E49
:1014400000D030C00FF031C010F027EC0EF02E505D
:10145000D8A402D0829002D0828000D082B003D083
:101460002D6A2D2A01D02D6A2D4684502D18FD0B92
:101470002D18846E33AE10D0000E2F6E32C01DF0CA
:1014800033C01EF0FF0E206E1F68BEEC0EF01DC0B4
:1014900032F01EC033F000D033BE0BD0210E325CD0
:1014A000030E3358D8A005D0030E336E200E326ED3
:1014B00000D032C00FF033C010F044EC0EF02F50CB
:1014C000D8A402D0829A02D0828A00D082BA03D0F5
:1014D0002D6A2D2A01D02D6A84502D18FE0B2D184F
:1014E000846E12003EC03BF03FC03CF040C03DF077
:1014F00054EC0CF0150E0F6E100E106E7DEC0EF00D
:101500000400020E4A6E6C0E496E160E08EC0FF0C7
:10151000000E106E000E0F6E95EC0FF0F29400D0DE
:1015200051EC0BF014D0010E10D0020E0ED0030EB1
:101530000CD0040E0AD03D6832D0FE0E06D0FD0E4F
:1015400004D0FC0E02D000D0000E3D6E28D04B50CF
:101550001F0B000AD8B4F8D7010AD8B4EAD7030A97
:10156000D8B4E3D7010AD8B4E2D7060AD8B4ECD786
:10157000030AD8B4D8D7010AD8B4E6D70F0AD8B42A
:10158000DCD7040AD8B4D7D71C0AD8B4DAD7040AEF
:10159000D8B4DAD70C0AD8B4D2D7040AD5D79CEC81
:1015A0000CF03B0E346E000E356E43EC08F0040078
:1015B000BDEC0FF00009D8B4B3D718EC0FF0B0D7DA
:1015C0000CEF00F0000E186E16AE0BD0161E151E96
:1015D000141E136C000E142215221622010E186E12
:1015E00000D012AE0BD0121E111E101E0F6C000E7A
:1015F000102211221222010E181A00D0000E196EAC
:10160000000E1A6E000E1B6E000E1C6E135014108E
:1016100015101610D8B42FD0010E176E07D0D89021
:101620001336143615361636172A00D016BE02D0D9
:10163000F6D700D0D89019361A361B361C36135000
:101640000F5C145010581550115816501258D8A04D
:101650000AD013500F5E1450105A1550115A1650DC
:10166000125A198000D0D890163215321432133223
:10167000172EE0D700D01850D8B409D01C1E1B1E5E
:101680001A1E196C000E1A221B221C2200D019C02F
:101690000FF01AC010F01BC011F01CC012F000D0E7
:1016A0001200870EAAEC0EF01350495C14504A58F1
:1016B000D8B003D0166A162A01D0166A163A4B50D3
:1016C0001618EF0B16184B6E8F0EAAEC0EF0135077
:1016D000495C14504A58D8B003D0166A162A01D073
:1016E000166A1646164616464B501618F70B16186D
:1016F0004B6E970EAAEC0EF01350495C14504A58EA
:10170000D8B003D0166A162A01D0166A16461646B5
:101710004B501618FB0B16184B6E9F0EAAEC0EF0D2
:101720001350495C14504A58D8B003D0166A162A90
:1017300001D0166A16464B501618FD0B16184B6E44
:10174000A70EAAEC0EF01350495C14504A58D8B0BA
:1017500003D0166A162A01D0166A4B501618FE0BD3
:1017600016184B6E1200000E146E000E156E000E51
:10177000166E000E176E000E186E000E196E000E1B
:101780001A6E000E1B6EC0EC0FF07E0E0F6E100E68
:10179000106E7DEC0EF08390838283848386838831
:1017A0002DD00400300E181817E1750E19181A10F4
:1017B0001B10D8A411D0000E186E000E196E000E6A
:1017C0001A6E000E1B6E010E1426000E1522162234
:1017D0001722839083820CD0980E181809E13A0ED4
:1017E00019181A101B10D8A403D08380839200D03C
:1017F000010E1826000E19221A221B22175016104D
:10180000151006E10A0E145CD8B002D0CAD700D079
:101810001200000E286E26AE07D0256C261ED8B00A
:10182000262A010E286E00D024AE07D0236C241E79
:10183000D8B0242A010E281A00D0000E2A6E000EFD
:10184000296E25502610D8B421D0010E276E05D060
:10185000D89025362636272A00D026BE02D0F8D7C3
:1018600000D0D89029362A362550235C265024589B
:10187000D8A006D02550235E2650245A298000D0B7
:10188000D89026322532272EECD700D02850D8B455
:1018900005D0296C2A1ED8B02A2A00D029C023F0EE
:1018A0002AC024F000D012004B904B924B944B96E0
:1018B0004B98D08EF29EF29C94EC0EF0C6EC0FF09A
:1018C000000E106E100E0F6E3C0E1AEC0DF0CFECE9
:1018D0000FF0000E836E06EC0EF0AFEC0FF0CCECC8
:1018E0000FF0C9EC0FF0C3EC0FF061EC0FF00C0E31
:1018F0000F6E0A0E106EA70E83EC0DF0829A849084
:1019000082908492060E53EC0FF0C70E8CEC0FF011
:10191000C70E61EC0EF0000E106E000E0F6E44EC60
:101920000EF0000E106E000E0F6E27EC0EF0020E81
:101930004A6E000E496E12004BB803D00F6A0F2A90
:1019400001D00F6A83500F18FE0B0F18836E4BB631
:1019500003D00F6A0F2A01D00F6A0F4683500F1869
:10196000FD0B0F18836E4BB403D00F6A0F2A01D002
:101970000F6A0F460F4683500F18FB0B0F18836E2C
:101980004BB203D00F6A0F2A01D00F6A0F460F46E1
:101990000F4683500F18F70B0F18836E4BB003D010
:1019A0000F6A0F2A01D00F6A0F3A83500F18EF0BFE
:1019B0000F18836E12000600EACF04F0E1CF05F0A5
:1019C000E2CF06F0D9CF07F0DACF08F0F3CF09F075
:1019D000F4CF0AF0F6CF0BF0F7CF0CF0F8CF0DF004
:1019E000F5CF0EF0A1949268936894689568030E01
:1019F000966E010E4C6EA094D2980EC0F5FF0DC0ED
:101A0000F8FF0CC0F7FF0BC0F6FF0AC0F4FF09C0D7
:101A1000F3FF08C0DAFF07C0D9FF06C0E2FF05C028
:101A2000E1FF04C0EAFF03C0E9FF02C0FBFF01C001
:101A3000FAFF1100116E000EAC6E000EAB6E11A01D
:101A400002D0AC8800D011A203D0AC8CAB8C00D0FB
:101A500011A402D0AC8E00D011A602D0AB8802D067
:101A6000AB8A00D011B8AC849E9811AA02D0AB8684
:101A700000D011AC02D09D8A01D09D9A9E9A11AEE1
:101A800002D09D8801D09D980FC0AFFF1050B06E5E
:101A9000AC8AAB8E949C948EACB8ACBE02D0948CC5
:101AA00000D01200000E0F6E000E106E000E116EB0
:101AB000000E126E0400300E0F1811E1750E101892
:101AC00011101210D8A40BD0000E0F6E000E106E65
:101AD000000E116E000E126E839083820CD0980E51
:101AE0000F1809E13A0E101811101210D8A403D0E3
:101AF0008380839200D0010E0F26000E1022112247
:101B00001222D8D71200136E000EC26E000EC06EE5
:101B1000D8900F303C0BC26E0FC011F0113AF00E8E
:101B20001116300E111610500F0B1110C16E13C08C
:101B300011F0D8901136D8901136380E111613C006
:101B400012F0123A0F0E1216070E12161350800BD7
:101B500012101110C06E0FAE03D09E9C9D8CF28CA3
:101B6000C2801200000E186E000E176E155016106F
:101B7000D8B421D0010E196E05D0D890153616367E
:101B8000192A00D016BE02D0F8D700D0D890173648
:101B900018361550135C16501458D8A006D015509E
:101BA000135E1650145A178000D0D8901632153292
:101BB000192EECD700D017C013F018C014F0120083
:101BC00015501610D8B41DD0010E176E05D0D89040
:101BD00015361636172A00D016BE02D0F8D700D018
:101BE0001550135C16501458D8A005D01550135E2C
:101BF0001650145A00D0D89016321532172EF0D73E
:101C000000D013C013F014C014F01200E5EC0EF075
:101C10000009D8B403D0B3EC0BF018D06DEC0FF082
:101C20000009D8B403D0F8EC0EF010D0D2EC0EF0CE
:101C30000009D8B403D037EC0FF008D0FCAE03D0C5
:101C400028EC0FF003D045EC0FF000D012000FC0CD
:101C500011F010C012F0060ED89011361236E82E90
:101C6000FBD711C013F012C014F014C0BBFF13C097
:101C700011F0D8901132D8901132300E1116BA509E
:101C8000CF0B1110BA6E12000FC011F010C012F07D
:101C9000060ED89011361236E82EFBD711C013F07D
:101CA00012C014F014C0BEFF13C011F0D89011324E
:101CB000D8901132300E1116BD50CF0B1110BD6EE1
:101CC00012000F6E0C0EBA6E050EF66E000EF76E59
:101CD000300EF86E08000001F5A002D0106802D0A6
:101CE000000E106E1050D8B402D0949201D093968A
:101CF000CA940FC0CBFFCA841200110E116E000EE1
:101D0000126E04D01350D4EC0FF000D00FC0F6FFC9
:101D100010C0F7FF0F4A102AF86A0800F5CF13F039
:101D20001350D8A4EFD71200D38CD38AD3889B8CBE
:101D3000000E106E000E0F6E10BE08D0F40E0F5C79
:101D4000010E1058D8B005D001D003D00F4A102A88
:101D5000F3D71200156E155078EC0FF0D2EC0FF09F
:101D600000D0B6EC0FF00009D8A4FBD7A7EC0FF019
:101D70000FC013F010C014F000D012001D501F024D
:101D8000F3CF21F0F4CF22F01D502002F350222691
:101D90001E501F02F350222621C01DF022C01EF04B
:101DA00000D01200D0A20ED0D0A40AD0D0A006D06D
:101DB000D0A602D003D008D0010E06D0000E04D069
:101DC000000E02D0000E00D01200D0B20ED0D0A46F
:101DD0000AD0D0B006D0D0B602D003D008D0010EC1
:101DE00006D0000E04D0000E02D0000E00D012006B
:101DF000C0EC0FF0780E0F6E100E106E7DEC0EF032
:101E00008380838283848386839852EC0DF0120052
:101E10000F6E0F507F0BD56E000ED76E000ED66E74
:101E2000F2940FAE02D0F28A01D0F29AD58E12004F
:101E3000710E0F6E100E106E7DEC0EF0CFEC0FF0E9
:101E40008390838283848396838852EC0DF0120002
:101E5000FC9E5F0E0F6E100E106E7DEC0EF08390E8
:101E6000838283948386839852EC0DF01200680E6F
:101E70000F6E100E106E7DEC0EF0839083828394B3
:101E80008386838852EC0DF01200550E0F6E100EF3
:101E9000106E7DEC0EF083908382839483968398FA
:101EA00052EC0DF012000F6E0F50FB0BCA6E000EBD
:101EB000CC6E9E920FAE02D09D8201D09D92CA84BC
:101EC0001200D08ED288A284D29ED286D284D282B0
:101ED000D290A194A084F28E1200D0B006D0D0B2DD
:101EE00002D003D004D0010E02D0000E00D01200A8
:101EF000106EC2CF0FF0C30E0F16D89010303C0BEF
:101F00000F10C26E120000EE3EF00F0EEE6AE806F1
:101F1000FDE1000172EF0AF00F6E0C0EBD129494F9
:101F2000CA940FC0CBFFCA8412000FC011F010C0BA
:101F300012F012C0D7FF11C0D6FF1200D6CF11F099
:101F4000D7CF12F011C00FF012C010F01200C45021
:101F5000116EC3500F6E11C010F000D0120094909B
:101F60009492949494969498949A1200C2A202D057
:101F7000010E02D0000E00D012004C5000D0120012
:101F8000D082D0801200000E966E1200949C948E27
:101F90001200C00E936E1200EF0E926E1200600ED1
:0A1FA000956E1200C28212001200BA
:020000040020DA
:08000000FFFFFFFFFFFFFFFF00
:020000040030CA
:0E000000FF080306FF0381FF0FC00FE00F4053
:00000001FF
