:040000000CEF00F011
:10000800FACF01F0FBCF02F0E9CF03F086ED0DF057
:040018003FEF10F0B6
:1010000000E0FC2BFD76FD00008A02D5022003FFE4
:10101000FFE20496000A0D4B77616E746C656E20DA
:1010200041505343313239392073696D706C6520FA
:10103000637572766520666F6C6C6F776572202DB4
:101040002D2077697468206572726F7220636F64F7
:1010500065730A0D00203C72657365743E20003C88
:1010600053544B46554C3E003C57445420544F3E3D
:10107000005C3C4C56443E003C424F523E003C50CB
:101080004F523E00000051EC10F00FC013F010C0A2
:1010900014F0110EF66E100EF76E000EF86E0900C9
:1010A000F5CF15F00A00F5CF16F08BEC0EF01350CB
:1010B0001410D8A477D046BE06D0400E455C060E6C
:1010C0004658D8B008D046BE06D0410E455C060E44
:1010D0004658D8B024D046BE0FD0400E455C060E10
:1010E0004658D8A009D020EE02F03450D926355009
:1010F000DA22000EDBBE13D046AE54D0C10E455CE2
:10110000F90E4658D8B04ED020EE02F03450D92611
:101110003550DA22DF50800A7F0FD8A043D048BE76
:1011200006D0C90E475C0C0E4858D8B008D048AE5F
:101130002AD0370E475CF30E4858D8B024D048BEAA
:101140000FD0C90E475C0C0E4858D8A009D020EE2D
:1011500002F03450D9263550DA22000EDBBE13D00F
:1011600048AE20D0370E475CF30E4858D8B01AD09E
:1011700020EE02F03450D9263550DA22DF50800AB2
:101180007F0FD8A00FD020EE02F03450D926355072
:10119000DA22DF50366E36504726000E36BEFF0E7E
:1011A000482200D020EE02F03450D9263550DA2201
:1011B00010EE01F03450E1263550E222DE50E61800
:1011C000D8B458D020EE01F03450D9263550DA2268
:1011D000DF50366E376A36BE3706361E371E364A41
:1011E000372A20EE02F03450D9263550DA22DF506B
:1011F000386E365038241D6E000E38BEFF0E372074
:101200001E6E51EC10F00FC015F010C016F00F0E4E
:10121000F66E100EF76E000EF86E0900F5CF13F0A3
:101220000A00F5CF14F05DEC0EF013C01FF014C0EF
:1012300020F069EC0FF01DC043F01EC044F020EE1A
:1012400001F03450D9263550DA2234C0E1FF35C0E0
:10125000E2FFDFCFE7FF20EE02F03450D926355011
:10126000DA2210EE01F03450E1263550E222DFCFD1
:10127000E7FF00D0F2A444D034C0D9FF35C0DAFF74
:10128000DF50366E376A36BE3706361E371E364A90
:10129000372A20EE01F03450D9263550DA22DF50BB
:1012A000386E365038241D6E000E38BEFF0E3720C3
:1012B0001E6EFF0E136EFF0E146E000E156E000EE6
:1012C000166E0F0EF66E100EF76E000EF86E090019
:1012D000F5CF39F00900F5CF3AF039C00FF03AC038
:1012E00010F0116A126A72EC0AF00FC01FF010C001
:1012F00020F069EC0FF01DC043F01EC044F0F294E2
:1013000020EE02F03450D9263550DA22DF501D6E1F
:101310001E6A1DBE1E06130EF66E100EF76E000E30
:10132000F86E0900F5CF1FF00A00F5CF20F069EC48
:101330000FF047501D2648501E2243501D24456E75
:1013400044501E20466E45C02BF046C02CF0AAEC3F
:1013500009F01200020E316EBC0E306E020E336EBA
:10136000BC0E326E010E2E6E010E2F6E2CAE23D0EF
:101370002BC01DF02CC01EF0000E206E0F0E1F6E35
:1013800069EC0FF01DC023F01EC024F0000E266E85
:10139000100E256E70EC0CF02350302624503122B4
:1013A0002BC023F02CC024F0000E266E100E256EEC
:1013B00070EC0CF022D02BC023F02CC024F0000ED7
:1013C000266E100E256E70EC0CF023503026245043
:1013D00031222BC01DF02CC01EF0000E206E0F0E0F
:1013E0001F6E69EC0FF01DC023F01EC024F0000E2C
:1013F000266E100E256E70EC0CF02350325E2450D9
:10140000335A00D031AE10D0000E2E6E30C01DF019
:1014100031C01EF0FF0E206E1F6869EC0FF01DC07A
:1014200030F01EC031F000D031BE0BD0210E305C48
:10143000030E3158D8A005D0030E316E200E306E49
:1014400000D030C00FF031C010F0D2EC0EF02E50B2
:10145000D8A402D0829002D0828000D082B003D083
:101460002D6A2D2A01D02D6A2D4684502D18FD0B92
:101470002D18846E33AE10D0000E2F6E32C01DF0CA
:1014800033C01EF0FF0E206E1F6869EC0FF01DC008
:1014900032F01EC033F000D033BE0BD0210E325CD0
:1014A000030E3358D8A005D0030E336E200E326ED3
:1014B00000D032C00FF033C010F0EFEC0EF02F5020
:1014C000D8A402D0829A02D0828A00D082BA03D0F5
:1014D0002D6A2D2A01D02D6A84502D18FE0B2D184F
:1014E000846E1200000E186E16AE0BD0161E151E5E
:1014F000141E136C000E142215221622010E186EF3
:1015000000D012AE0BD0121E111E101E0F6C000E5A
:10151000102211221222010E181A00D0000E196E8C
:10152000000E1A6E000E1B6E000E1C6E135014106F
:1015300015101610D8B42FD0010E176E07D0D89002
:101540001336143615361636172A00D016BE02D0BA
:10155000F6D700D0D89019361A361B361C361350E1
:101560000F5C145010581550115816501258D8A02E
:101570000AD013500F5E1450105A1550115A1650BD
:10158000125A198000D0D890163215321432133204
:10159000172EE0D700D01850D8B409D01C1E1B1E3F
:1015A0001A1E196C000E1A221B221C2200D019C010
:1015B0000FF01AC010F01BC011F01CC012F000D0C8
:1015C000120040C03DF041C03EF042C03FF0BBECD5
:1015D0000CF0150E0F6E100E106E28EC0FF00400BC
:1015E000020E4A6E6C0E496E160EC4EC0FF0000E21
:1015F000106E000E0F6E5AEC10F0F29400D0B8ECA2
:101600000BF01AD0010E16D0020E14D0030E12D019
:10161000040E10D03F682ED0FE0E0CD0FD0E0AD066
:10162000FC0E08D03D0E386E000E396E4DEC0BF0FE
:1016300000D0000E3F6E1ED04B501F0B000AD8B4D6
:10164000F1D7010AD8B4E4D7030AD8B4DDD7010A28
:10165000D8B4DCD7050AD8B4D5D70E0AD8B4DCD7AD
:10166000040AD8B4D7D71C0AD8B4DAD7080AD8B431
:10167000D5D7DFD747EC0DF03D0E346E000E356E3A
:1016800043EC08F0040079EC10F00009D8B4B7D7A7
:10169000D4EC0FF0B4D70CEF00F004D0010E03EC43
:1016A0000DF065D0010E3B6E20EE02F03850D926C9
:1016B0003950DA22DF50D8A40CD020EE01F0385097
:1016C000D9263950DA22DF50D8A403D0000E3B6E61
:1016D00000D0000E03EC0DF04AD0000E106E000E8C
:1016E0000F6E5AEC10F0F29407D0000E2C6E000E24
:1016F0002B6EAAEC09F000D04B501F0B0009D8B498
:10170000F2B402D0F2D700D04B501F0B0009D8A47E
:101710002ED0A3EC0FF0410E3A6EEE0EE82EFED75F
:101720003A2EFCD700D0060E2C6E400E2B6EAAEC83
:1017300009F0000E3C6E4F0E3C6401D011D0820EB9
:101740003A6EDE0EE82EFED73A2EFCD73C2AF3D7AF
:1017500007D0000E2C6E000E2B6EAAEC09F000D004
:101760004B501F0B0009D8A402D0F3D700D01200B1
:10177000870E55EC0FF01350495C14504A58D8B0FE
:1017800003D0166A162A01D0166A163A4B5016185C
:10179000EF0B16184B6E8F0E55EC0FF01350495C83
:1017A00014504A58D8B003D0166A162A01D0166AC7
:1017B0001646164616464B501618F70B16184B6E63
:1017C000970E55EC0FF01350495C14504A58D8B09E
:1017D00003D0166A162A01D0166A164616464B50D2
:1017E0001618FB0B16184B6E9F0E55EC0FF013508E
:1017F000495C14504A58D8B003D0166A162A01D052
:10180000166A16464B501618FD0B16184B6EA70E8F
:1018100055EC0FF01350495C14504A58D8B003D01F
:10182000166A162A01D0166A4B501618FE0B1618A7
:101830004B6E1200000E146E000E156E000E166E2A
:10184000000E176E000E186E000E196E000E1A6E46
:10185000000E1B6E7CEC10F07E0E0F6E100E106EE4
:1018600028EC0FF0839083828384838683882DD035
:101870000400300E181817E1750E19181A101B10F5
:10188000D8A411D0000E186E000E196E000E1A6E3C
:10189000000E1B6E010E1426000E152216221722B2
:1018A000839083820CD0980E181809E13A0E19180B
:1018B0001A101B10D8A403D08380839200D0010E8D
:1018C0001826000E19221A221B2217501610151066
:1018D00006E10A0E145CD8B002D0CAD700D01200BC
:1018E000000E286E26AE07D0256C261ED8B0262AFC
:1018F000010E286E00D024AE07D0236C241ED8B071
:10190000242A010E281A00D0000E2A6E000E296E1D
:1019100025502610D8B421D0010E276E05D0D890BE
:1019200025362636272A00D026BE02D0F8D700D08A
:10193000D89029362A362550235C26502458D8A022
:1019400006D02550235E2650245A298000D0D890F6
:1019500026322532272EECD700D02850D8B405D017
:10196000296C2A1ED8B02A2A00D029C023F02AC008
:1019700024F000D012004B904B924B944B964B9816
:10198000D08EF29EF29C3FEC0FF082EC10F0000E35
:10199000106E100E0F6E3C0EC5EC0DF08BEC10F0BF
:1019A000000E836EB1EC0EF06BEC10F088EC10F0D2
:1019B00085EC10F07FEC10F01DEC10F00C0E0F6EAB
:1019C0000A0E106EA70E2EEC0EF0829A8490829072
:1019D0008492060E0FEC10F0C70E48EC10F0C70E04
:1019E0000CEC0FF0000E106E000E0F6EEFEC0EF010
:1019F000000E106E000E0F6ED2EC0EF0020E4A6E4C
:101A0000000E496E1200356EA3EC0FF0410E346EDD
:101A1000EE0EE82EFED7342EFCD700D03550D8B4C9
:101A200019D0060E376E400E366E0CD036C02BF035
:101A300037C02CF0AAEC09F04BA404D03606D8A08D
:101A4000370600D04BB61ED036503710D8B41AD057
:101A5000EDD718D0F90E376EC00E366E0BD036C0EB
:101A60002BF037C02CF0AAEC09F04BA403D0364A77
:101A7000372A00D04BB206D036503710D8B402D037
:101A8000EED700D0000E486E000E476E12004BB825
:101A900003D00F6A0F2A01D00F6A83500F18FE0B74
:101AA0000F18836E4BB603D00F6A0F2A01D00F6A4E
:101AB0000F4683500F18FD0B0F18836E4BB403D0E5
:101AC0000F6A0F2A01D00F6A0F460F4683500F1876
:101AD000FB0B0F18836E4BB203D00F6A0F2A01D095
:101AE0000F6A0F460F460F4683500F18F70B0F185B
:101AF000836E4BB003D00F6A0F2A01D00F6A0F3AE2
:101B000083500F18EF0B0F18836E12000600EACFF8
:101B100004F0E1CF05F0E2CF06F0D9CF07F0DACF3D
:101B200008F0F3CF09F0F4CF0AF0F6CF0BF0F7CFBF
:101B30000CF0F8CF0DF0F5CF0EF0A19492689368F9
:101B400094689568030E966E010E4C6EA094D29820
:101B50000EC0F5FF0DC0F8FF0CC0F7FF0BC0F6FF7D
:101B60000AC0F4FF09C0F3FF08C0DAFF07C0D9FFBD
:101B700006C0E2FF05C0E1FF04C0EAFF03C0E9FFC1
:101B800002C0FBFF01C0FAFF1100116E000EAC6E27
:101B9000000EAB6E11A002D0AC8800D011A203D011
:101BA000AC8CAB8C00D011A402D0AC8E00D011A6AE
:101BB00002D0AB8802D0AB8A00D011B8AC849E981A
:101BC00011AA02D0AB8600D011AC02D09D8A01D000
:101BD0009D9A9E9A11AE02D09D8801D09D980FC00B
:101BE000AFFF1050B06EAC8AAB8E949C948EACB8A4
:101BF000ACBE02D0948C00D01200000E0F6E000E0E
:101C0000106E000E116E000E126E0400300E0F18D2
:101C100011E1750E101811101210D8A40BD0000E7F
:101C20000F6E000E106E000E116E000E126E83907D
:101C300083820CD0980E0F1809E13A0E101811107B
:101C40001210D8A403D08380839200D0010E0F26F7
:101C5000000E102211221222D8D71200136E000E8D
:101C6000C26E000EC06ED8900F303C0BC26E0FC01B
:101C700011F0113AF00E1116300E111610500F0B14
:101C80001110C16E13C011F0D8901136D8901136D2
:101C9000380E111613C012F0123A0F0E1216070E5C
:101CA00012161350800B12101110C06E0FAE03D01D
:101CB0009E9C9D8CF28CC2801200000E186E000E4D
:101CC000176E15501610D8B421D0010E196E05D01C
:101CD000D89015361636192A00D016BE02D0F8D77D
:101CE00000D0D890173618361550135C165014587B
:101CF000D8A006D01550135E1650145A178000D085
:101D0000D89016321532192EECD700D017C013F028
:101D100018C014F0120015501610D8B41DD0010EC2
:101D2000176E05D0D89015361636172A00D016BE75
:101D300002D0F8D700D01550135C16501458D8A014
:101D400005D01550135E1650145A00D0D890163294
:101D50001532172EF0D700D013C013F014C014F0B2
:101D6000120090EC0FF00009D8B403D01AEC0CF07C
:101D700018D029EC10F00009D8B403D0B4EC0FF05F
:101D800010D07DEC0FF00009D8B403D0F3EC0FF0C5
:101D900008D0FCAE03D0E4EC0FF003D001EC10F05F
:101DA00000D012000FC011F010C012F0060ED89033
:101DB00011361236E82EFBD711C013F012C014F002
:101DC00014C0BBFF13C011F0D8901132D89011325B
:101DD000300E1116BA50CF0B1110BA6E12000FC090
:101DE00011F010C012F0060ED89011361236E82EFF
:101DF000FBD711C013F012C014F014C0BEFF13C003
:101E000011F0D8901132D8901132300E1116BD5009
:101E1000CF0B1110BD6E12000F6E0C0EBA6E050EB8
:101E2000F66E000EF76E300EF86E08000001F5A099
:101E300002D0106802D0000E106E1050D8B402D03C
:101E4000949201D09396CA940FC0CBFFCA8412001B
:101E5000110E116E000E126E04D0135090EC10F0A3
:101E600000D00FC0F6FF10C0F7FF0F4A102AF86A23
:101E70000800F5CF13F01350D8A4EFD71200D38C7D
:101E8000D38AD3889B8C000E106E000E0F6E10BE8E
:101E900008D0F40E0F5C010E1058D8B005D001D058
:101EA00003D00F4A102AF3D71200156E155034ECE8
:101EB00010F08EEC10F000D072EC10F00009D8A4F5
:101EC000FBD763EC10F00FC013F010C014F000D07B
:101ED00012001D501F02F3CF21F0F4CF22F01D504D
:101EE0002002F35022261E501F02F350222621C04A
:101EF0001DF022C01EF000D01200D0A20ED0D0A43F
:101F00000AD0D0A006D0D0A602D003D008D0010EAF
:101F100006D0000E04D0000E02D0000E00D0120039
:101F2000D0B20ED0D0A40AD0D0B006D0D0B602D055
:101F300003D008D0010E06D0000E04D0000E02D04F
:101F4000000E00D01200030E106E200E0F6EEFEC8C
:101F50000EF0030E106E200E0F6ED2EC0EF0849277
:101F600082908490829A12007CEC10F0780E0F6EB2
:101F7000100E106E28EC0FF083808382838483869A
:101F80008398FDEC0DF012000F6E0F507F0BD56E95
:101F9000000ED76E000ED66EF2940FAE02D0F28A0B
:101FA00001D0F29AD58E1200710E0F6E100E106EC7
:101FB00028EC0FF08BEC10F083908382838483965F
:101FC0008388FDEC0DF01200FC9E5F0E0F6E100E6C
:101FD000106E28EC0FF0839083828394838683981D
:101FE000FDEC0DF01200680E0F6E100E106E28EC56
:101FF0000FF083908382839483868388FDEC0DF0B9
:102000001200550E0F6E100E106E28EC0FF083901C
:102010008382839483968398FDEC0DF012000F6EFB
:102020000F50FB0BCA6E000ECC6E9E920FAE02D00C
:102030009D8201D09D92CA841200D08ED288A28443
:10204000D29ED286D284D282D290A194A084F28EE3
:102050001200D0B006D0D0B202D003D004D0010E0E
:1020600002D0000E00D01200106EC2CF0FF0C30ECF
:102070000F16D89010303C0B0F10C26E120000EEFD
:1020800040F00D0EEE6AE806FDE10001E1EF0AF016
:102090000F6E0C0EBD129494CA940FC0CBFFCA846D
:1020A0001200D6CF11F0D7CF12F011C00FF012C02E
:1020B00010F012000FC011F010C012F012C0D7FFC4
:1020C00011C0D6FF1200C450116EC3500F6E11C064
:1020D00010F000D012009490949294949496949856
:1020E000949A1200C2A202D0010E02D0000E00D0BB
:1020F00012004C5000D01200D082D0801200000E8E
:10210000966E1200949C948E1200C00E936E120074
:10211000EF0E926E1200600E956E1200C2821200D7
:022120001200AB
:020000040020DA
:08000000FFFFFFFFFFFFFFFF00
:020000040030CA
:0E000000FF080306FF0381FF0FC00FE00F4053
:00000001FF
