:040000000CEF00F011
:10000800FACF01F0FBCF02F0E9CF03F08BED0DF052
:0400180068EF10F08D
:1010000000E8030A0096002003000A0D4B77616E8A
:10101000746C656E20415053433132393920736905
:101020006D706C6520637572766520666F6C6C6F91
:10103000776572202D2D2077697468206572726F34
:101040007220636F6465730A0D00203C72657365DE
:10105000743E20003C53544B46554C3E003C574494
:101060005420544F3E005C3C4C56443E003C424FA2
:10107000523E003C504F523E0000030EF66E100EE2
:10108000F76E000EF86E0900F550451804E10900EE
:10109000F5504618D8A47CD040BE06D0400E3F5C28
:1010A000060E4058D8B008D040BE06D0410E3F5C76
:1010B000060E4058D8B024D040BE0FD0400E3F5C42
:1010C000060E4058D8A009D020EE02F02E50D926A6
:1010D0002F50DA22000EDBBE13D040AE54D0C10E2A
:1010E0003F5CF90E4058D8B04ED020EE02F02E50A2
:1010F000D9262F50DA22DF50800A7F0FD8A043D0A4
:1011000044BE06D0C90E435C0C0E4458D8B008D07B
:1011100044AE2AD0370E435CF30E4458D8B024D0E6
:1011200044BE0FD0C90E435C0C0E4458D8A009D061
:1011300020EE02F02E50D9262F50DA22000EDBBE10
:1011400013D044AE20D0370E435CF30E4458D8B0D1
:101150001AD020EE02F02E50D9262F50DA22DF507E
:10116000800A7F0FD8A00FD020EE02F02E50D92693
:101170002F50DA22DF50306E30504326000E30BE42
:10118000FF0E442200D0000E466E000E456E00D0C9
:1011900020EE02F02E50D9262F50DA2210EE01F068
:1011A0002E50E1262F50E222DE50E618D8A407D0B8
:1011B000D00E41185EE1070E4218D8A45AD020EE96
:1011C00001F02E50D9262F50DA22DF50306E316ACE
:1011D00030BE3106301E311E304A312A20EE02F078
:1011E0002E50D9262F50DA22DF50326E3050322462
:1011F000166E000E32BEFF0E3120176E41C011F088
:1012000042C012F0010EF66E100EF76E000EF86E70
:101210000900F5CF0FF00A00F5CF10F09CEC0EF0AE
:101220000FC018F010C019F082EC0FF016C03DF09E
:1012300017C03EF020EE01F02E50D9262F50DA22B2
:101240002EC0E1FF2FC0E2FFDFCFE7FF20EE02F06C
:101250002E50D9262F50DA2210EE01F02E50E12622
:101260002F50E222DFCFE7FF000E426E000E416EEC
:1012700000D020EE02F02E50D9262F50DA22DF5077
:10128000166E176A16BE1706050EF66E100EF76E6E
:10129000000EF86E0900F5CF18F00A00F5CF19F02E
:1012A00082EC0FF043501626445017223D5016246E
:1012B0003F6E3E501720406E3FC024F040C025F0E6
:1012C000000E266E69EC09F0454A462A414A422A38
:1012D0001200020E2B6EBC0E2A6E020E2D6EBC0E7C
:1012E0002C6E010E286E010E296E25AE23D024C06F
:1012F00016F025C017F0000E196E0F0E186E82EC56
:101300000FF016C01CF017C01DF0000E1F6E100E5F
:101310001E6EB9EC0CF01C502A261D502B2224C046
:101320001CF025C01DF0000E1F6E100E1E6EB9ECD5
:101330000CF022D024C01CF025C01DF0000E1F6E42
:10134000100E1E6EB9EC0CF01C502A261D502B22DC
:1013500024C016F025C017F0000E196E0F0E186E7F
:1013600082EC0FF016C01CF017C01DF0000E1F6EAF
:10137000100E1E6EB9EC0CF01C502C5E1D502D5A38
:1013800000D02650D8B41BD02AC01CF02BC01DF0B2
:1013900026C01EF01F6AB9EC0CF01CC02AF01DC05C
:1013A0002BF02CC01CF02DC01DF026C01EF01F6AB3
:1013B000B9EC0CF01CC02CF01DC02DF000D02BAEF1
:1013C00010D0000E286E2AC016F02BC017F0FF0EAA
:1013D000196E186882EC0FF016C02AF017C02BF0B7
:1013E00000D02BBE0BD0210E2A5C030E2B58D8A0A8
:1013F00005D0030E2B6E200E2A6E00D02AC00FF0EF
:101400002BC010F0EBEC0EF02850D8A402D0829044
:1014100002D0828000D082B003D0276A272A01D070
:10142000276A274684502718FD0B2718846E2DAE97
:1014300010D0000E296E2CC016F02DC017F0FF0E34
:10144000196E186882EC0FF016C02CF017C02DF042
:1014500000D02DBE0BD0210E2C5C030E2D58D8A031
:1014600005D0030E2D6E200E2C6E00D02CC00FF078
:101470002DC010F008EC0FF02950D8A402D0829AA9
:1014800002D0828A00D082BA03D0276A272A01D0EC
:10149000276A84502718FE0B2718846E120020EE4E
:1014A00002F03250D9263350DA22DF50800A7D0F05
:1014B000D8B00ED020EE01F03250D9263350DA22C7
:1014C000DF50800A7D0FD8B003D04A50D8B404D082
:1014D000010E64EC0CF095D020EE02F03250D926CB
:1014E0003350DA22DF50800A820FD8A00ED020EECF
:1014F00001F03250D9263350DA22DF50800A820FB1
:10150000D8A003D04950D8B404D0000E64EC0CF03D
:1015100078D0000E106E000E0F6E83EC10F0F29477
:101520000DD0ACEC0BF04CEC0DF0000E256E000E67
:10153000246E000E266E69EC09F000D04B501F0B94
:101540000009D8A40CD0F2A4ECD77AEC10F03B0E32
:101550000F5CE80E1058D8B002D0E3D700D04B5043
:101560001F0B0009D8A44DD0BCEC0FF0410E346E17
:10157000EE0EE82EFED7342EFCD700D0060E256ED8
:10158000400E246E090EF66E100EF76E000EF86E09
:101590000800F5CF26F069EC09F0000E366E000E5B
:1015A000356E070EF66E100EF76E000EF86E09001F
:1015B000F550355C0900F5503658D8B01BD001D035
:1015C00019D00B0E346E5F0EE82EFED7342EFCD7EA
:1015D00000D0354A362AE5D70DD0ACEC0BF04CECF8
:1015E0000DF0000E256E000E246E000E266E69ECC6
:1015F00009F000D04B501F0B0009D8A402D0EDD742
:1016000000D0000E466E000E456E000E426E000EBB
:10161000416E12003AC037F03BC038F03CC039F0A0
:1016200004EC0DF00A0E0F6E100E106E41EC0FF070
:101630000400020E486E3F0E476E160EDDEC0FF0F2
:10164000000E106E000E0F6E83EC10F0F29400D0BE
:10165000ACEC0BF0FDEC0FF037D0010E33D0020EE6
:1016600031D0030E2FD0040E2DD039685AD0FE0E83
:1016700029D0FD0E27D0FC0E25D000D0800E106E94
:10168000000E0F6E83EC10F0F294010E4A6E000E05
:10169000496E47D000D0800E106E000E0F6E83ECA6
:1016A00010F0F294010E496E000E4A6E3AD0370ED9
:1016B000326E000E336E4FEC0AF033D0CAEC0DF0F0
:1016C00030D0000E396E2DD04B501F0B000AD8B40D
:1016D000EED7010AD8B4C7D7030AD8B4C0D7010AD5
:1016E000D8B4BFD7050AD8B4B8D7010AD8B4C6D77A
:1016F0000F0AD8B4BCD7040AD8B4B7D7030AD8B4F1
:10170000BDD71F0AD8B4B7D7080AD8B4B2D7040ACD
:10171000D8B4C1D7020AD8B4BED7010AD8B4CED73C
:10172000D0D7F2A406D0000E4A6E000E496EF29495
:1017300000D04CEC0DF0370E2E6E000E2F6E3DECEF
:1017400008F00400A2EC10F00009D8B481D7EDEC49
:101750000FF07ED70CEF00F0870E6EEC0FF01350F9
:10176000475C14504858D8B003D0166A162A01D0E6
:10177000166A163A4B501618EF0B16184B6E8F0E52
:101780006EEC0FF01350475C14504858D8B003D09B
:10179000166A162A01D0166A1646164616464B5089
:1017A0001618F70B16184B6E970E6EEC0FF01350C1
:1017B000475C14504858D8B003D0166A162A01D096
:1017C000166A164616464B501618FB0B16184B6E2B
:1017D0009F0E6EEC0FF01350475C14504858D8B071
:1017E00003D0166A162A01D0166A16464B501618F0
:1017F000FD0B16184B6EA70E6EEC0FF01350475CE6
:1018000014504858D8B003D0166A162A01D0166A68
:101810004B501618FE0B16184B6E1200000E146E6D
:10182000000E156E000E166E000E176E000E186E6E
:10183000000E196E000E1A6E000E1B6EA5EC10F055
:10184000730E0F6E100E106E41EC0FF083908382BA
:101850008384838683882DD00400300E181817E106
:10186000750E19181A101B10D8A411D0000E186E7E
:10187000000E196E000E1A6E000E1B6E010E14265D
:10188000000E152216221722839083820CD0980E08
:10189000181809E13A0E19181A101B10D8A403D011
:1018A0008380839200D0010E1826000E19221A227E
:1018B0001B2217501610151006E10A0E145CD8B042
:1018C00002D0CAD700D012002F6EBCEC0FF0410E30
:1018D0002E6EEE0EE82EFED72E2EFCD700D02F5007
:1018E000D8B422D0060E316E400E306E12D0ACEC61
:1018F0000BF04CEC0DF030C024F031C025F0000EA0
:10190000266E69EC09F04BA404D03006D8A031064D
:1019100000D04BB606D030503110D8B402D0E7D743
:1019200000D0000E4A6E20D0F90E316EC00E306E1F
:1019300011D0ACEC0BF04CEC0DF030C024F031C009
:1019400025F0000E266E69EC09F04BA403D0304A56
:10195000312A00D04BB206D030503110D8B402D06A
:10196000E8D700D0000E496E000E446E000E436EA4
:101970001200000E216E1FAE07D01E6C1F1ED8B0C5
:101980001F2A010E216E00D01DAE07D01C6C1D1E3B
:10199000D8B01D2A010E211A00D0000E236E000EB1
:1019A000226E1E501F10D8B421D0010E206E05D01B
:1019B000D8901E361F36202A00D01FBE02D0F8D77E
:1019C00000D0D890223623361E501C5C1F501D5864
:1019D000D8A006D01E501C5E1F501D5A228000D079
:1019E000D8901F321E32202EECD700D02150D8B410
:1019F00005D0226C231ED8B0232A00D022C01CF0B0
:101A000023C01DF000D012004B904B924B944B968C
:101A10004B98D08EF29EF29C58EC0FF0ABEC10F08D
:101A2000000E106E100E0F6E3C0E04EC0EF0B4ECB7
:101A300010F0000E836ECAEC0EF094EC10F0B1ECD6
:101A400010F0AEEC10F0A8EC10F046EC10F00C0E1C
:101A50000F6E0A0E106EA70E6DEC0EF0829A849037
:101A600082908492060E38EC10F0C70E71EC10F0E4
:101A7000C70E25EC0FF0000E106E000E0F6E08EC76
:101A80000FF0000E106E000E0F6EEBEC0EF0020E5B
:101A9000486E000E476E12004BB803D00F6A0F2A33
:101AA00001D00F6A83500F18FE0B0F18836E4BB6D0
:101AB00003D00F6A0F2A01D00F6A0F4683500F1808
:101AC000FD0B0F18836E4BB403D00F6A0F2A01D0A1
:101AD0000F6A0F460F4683500F18FB0B0F18836ECB
:101AE0004BB203D00F6A0F2A01D00F6A0F460F4680
:101AF0000F4683500F18F70B0F18836E4BB003D0AF
:101B00000F6A0F2A01D00F6A0F3A83500F18EF0B9C
:101B10000F18836E12000600EACF04F0E1CF05F043
:101B2000E2CF06F0D9CF07F0DACF08F0F3CF09F013
:101B3000F4CF0AF0F6CF0BF0F7CF0CF0F8CF0DF0A2
:101B4000F5CF0EF0A1949268936894689568030E9F
:101B5000966E010E4C6EA094D2980EC0F5FF0DC08B
:101B6000F8FF0CC0F7FF0BC0F6FF0AC0F4FF09C076
:101B7000F3FF08C0DAFF07C0D9FF06C0E2FF05C0C7
:101B8000E1FF04C0EAFF03C0E9FF02C0FBFF01C0A0
:101B9000FAFF1100000E106E000E0F6E83EC10F0B5
:101BA000F2940DD0ACEC0BF04CEC0DF0000E256E69
:101BB000000E246E000E266E69EC09F000D04B502A
:101BC0001F0B1F0AD8B4F2B402D0ECD700D04B5090
:101BD0001F0B1F0AD8A40FD0BCEC0FF005D0ACEC43
:101BE0000BF04CEC0DF000D04B501F0B1F0AD8A48B
:101BF00002D0F5D700D0000E466E000E456E000EE6
:101C0000426E000E416E1200116E000EAC6E000EA0
:101C1000AB6E11A002D0AC8800D011A203D0AC8C66
:101C2000AB8C00D011A402D0AC8E00D011A602D093
:101C3000AB8802D0AB8A00D011B8AC849E9811AAB0
:101C400002D0AB8600D011AC02D09D8A01D09D9A03
:101C50009E9A11AE02D09D8801D09D980FC0AFFF13
:101C60001050B06EAC8AAB8E949C948EACB8ACBE67
:101C700002D0948C00D01200000E0F6E000E106E79
:101C8000000E116E000E126E0400300E0F1811E1DE
:101C9000750E101811101210D8A40BD0000E0F6E74
:101CA000000E106E000E116E000E126E8390838275
:101CB0000CD0980E0F1809E13A0E101811101210DE
:101CC000D8A403D08380839200D0010E0F26000E8B
:101CD000102211221222D8D71200136E000EC26EEB
:101CE000000EC06ED8900F303C0BC26E0FC011F0CA
:101CF000113AF00E1116300E111610500F0B111074
:101D0000C16E13C011F0D8901136D8901136380E2C
:101D1000111613C012F0123A0F0E1216070E1216F9
:101D20001350800B12101110C06E0FAE03D09E9C8A
:101D30009D8CF28CC2801200000E146E000E136E89
:101D400011501210D8B421D0010E156E05D0D890C4
:101D500011361236152A00D012BE02D0F8D700D0A4
:101D6000D8901336143611500F5C12501058D8A06A
:101D700006D011500F5E1250105A138000D0D89028
:101D800012321132152EECD700D013C00FF014C050
:101D900010F01200A9EC0FF00009D8B403D00EEC3B
:101DA0000CF018D052EC10F00009D8B403D0CDECF0
:101DB0000FF010D096EC0FF00009D8B403D01CEC53
:101DC00010F008D0FCAE03D00DEC10F003D02AECDC
:101DD00010F000D012000FC011F010C012F0060E6B
:101DE000D89011361236E82EFBD711C013F012C06E
:101DF00014F014C0BBFF13C011F0D8901132D8906A
:101E00001132300E1116BA50CF0B1110BA6E1200EB
:101E10000FC011F010C012F0060ED8901136123615
:101E2000E82EFBD711C013F012C014F014C0BEFF8F
:101E300013C011F0D8901132D8901132300E111613
:101E4000BD50CF0B1110BD6E12000F6E0C0EBA6E8E
:101E5000050EF66E000EF76E300EF86E08000001EB
:101E6000F5A002D0106802D0000E106E1050D8B449
:101E700002D0949201D09396CA940FC0CBFFCA842B
:101E80001200110E116E000E126E04D01350B9EC38
:101E900010F000D00FC0F6FF10C0F7FF0F4A102A55
:101EA000F86A0800F5CF13F01350D8A4EFD712004A
:101EB000D38CD38AD3889B8C000E106E000E0F6ECD
:101EC00010BE08D0F40E0F5C010E1058D8B005D02B
:101ED00001D003D00F4A102AF3D71200156E155007
:101EE0005DEC10F0B7EC10F000D09BEC10F00009A6
:101EF000D8A4FBD78CEC10F00FC013F010C014F076
:101F000000D0120016501802F3CF1AF0F4CF1BF0D5
:101F100016501902F3501B2617501802F3501B26B7
:101F20001AC016F01BC017F000D01200D0A20ED0BD
:101F3000D0A40AD0D0A006D0D0A602D003D008D01A
:101F4000010E06D0000E04D0000E02D0000E00D00C
:101F50001200D0B20ED0D0A40AD0D0B006D0D0B6E5
:101F600002D003D008D0010E06D0000E04D0000E1F
:101F700002D0000E00D01200030E106E200E0F6E65
:101F800008EC0FF0030E106E200E0F6EEBEC0EF04F
:101F9000849282908490829A1200A5EC10F06D0ECB
:101FA0000F6E100E106E41EC0FF0838083828384DD
:101FB000838683983CEC0EF012000F6E0F507F0B5F
:101FC000D56E000ED76E000ED66EF2940FAE02D014
:101FD000F28A01D0F29AD58E1200660E0F6E100EA4
:101FE000106E41EC0FF0B4EC10F083908382838488
:101FF000839683883CEC0EF012004BB84BB603D0AE
:102000004BA44BB24B984BB04BB206D04BB402D062
:102010004BA602D04B9000D01200FC9E540E0F6EC7
:10202000100E106E41EC0FF08390838283948386B0
:1020300083983CEC0EF012005D0E0F6E100E106EC9
:1020400041EC0FF0839083828394838683883CECF9
:102050000EF012004A0E0F6E100E106E41EC0FF0D3
:10206000839083828394839683983CEC0EF01200D5
:102070000F6E0F50FB0BCA6E000ECC6E9E920FAE11
:1020800002D09D8201D09D92CA841200D08ED28847
:10209000A284D29ED286D284D282D290A194A084ED
:1020A000F28E1200D0B006D0D0B202D003D004D04D
:1020B000010E02D0000E00D01200106EC2CF0FF041
:1020C000C30E0F16D89010303C0B0F10C26E1200CA
:1020D00000EE3AF0130EEE6AE806FDE100010AEFA9
:1020E0000BF00F6E0C0EBD129494CA940FC0CBFF70
:1020F000CA841200D6CF11F0D7CF12F011C00FF062
:1021000012C010F012000FC011F010C012F012C077
:10211000D7FF11C0D6FF1200C450116EC3500F6E0E
:1021200011C010F000D01200949094929494949660
:102130009498949A1200C2A202D0010E02D0000E0E
:1021400000D012004C5000D01200D082D08012007B
:10215000000E966E1200949C948E1200C00E936E28
:102160001200EF0E926E1200600E956E1200C28287
:042170001200120047
:020000040020DA
:08000000FFFFFFFFFFFFFFFF00
:020000040030CA
:0E000000FF080306FF0381FF0FC00FE00F4053
:00000001FF
