:040000000CEF00F011
:10000800FACF01F0FBCF02F0E9CF03F0EDED0DF0F0
:0400180090EF10F065
:1010000000401F32009600D007E803F4012003F4EB
:10101000010A0D4B77616E746C656E20415053432D
:10102000313239392073696D706C65206375727661
:101030006520666F6C6C6F776572202D2D20776947
:101040007468206572726F7220636F6465730A0D35
:1010500000203C72657365743E20003C53544B463F
:10106000554C3E003C57445420544F3E005C3C4C91
:1010700056443E003C424F523E003C504F523E00D0
:101080000000030EF66E100EF76E000EF86E0900EB
:10109000F550471804E10900F5504818D8A47CD051
:1010A00042BE06D0400E415C060E4258D8B008D071
:1010B00042BE06D0410E415C060E4258D8B024D044
:1010C00042BE0FD0400E415C060E4258D8A009D057
:1010D00020EE02F02D50D9262E50DA22000EDBBE73
:1010E00013D042AE54D0C10E415CF90E4258D8B074
:1010F0004ED020EE02F02D50D9262E50DA22DF50AD
:10110000800A7F0FD8A043D046BE06D0C90E455CEA
:101110000C0E4658D8B008D046AE2AD0370E455CE3
:10112000F30E4658D8B024D046BE0FD0C90E455C49
:101130000C0E4658D8A009D020EE02F02D50D9262A
:101140002E50DA22000EDBBE13D046AE20D0370E72
:10115000455CF30E4658D8B01AD020EE02F02D5060
:10116000D9262E50DA22DF50800A7F0FD8A00FD068
:1011700020EE02F02D50D9262E50DA22DF502F6EAD
:101180002F504526000E2FBEFF0E462200D0000E27
:10119000486E000E476E00D020EE02F02D50D9268A
:1011A0002E50DA2210EE01F02D50E1262E50E222D0
:1011B000DE50E618D8A41CD00F0EF66E100EF76E97
:1011C000000EF86E0900F5CF2FF00900F5CF30F0D2
:1011D0002F3A303AF00E30162F500F0B3012F00E1F
:1011E0002F1643502F185EE144503018D8A45AD01F
:1011F00020EE01F02D50D9262E50DA22DF502F6E2E
:10120000306A2FBE30062F1E301E2F4A302A20EEA5
:1012100002F02D50D9262E50DA22DF50316E2F5099
:101220003124166E000E31BEFF0E3020176E43C003
:1012300011F044C012F0010EF66E100EF76E000EA3
:10124000F86E0900F5CF0FF00A00F5CF10F0C4ECEE
:101250000EF00FC018F010C019F0AAEC0FF016C075
:101260003FF017C040F020EE01F02D50D9262E504F
:10127000DA222DC0E1FF2EC0E2FFDFCFE7FF20EE34
:1012800002F02D50D9262E50DA2210EE01F02D500A
:10129000E1262E50E222DFCFE7FF000E446E000E63
:1012A000436E00D020EE02F02D50D9262E50DA22C7
:1012B000DF50166E176A16BE1706050EF66E100E74
:1012C000F76E000EF86E0900F5CF18F00A00F5CFA2
:1012D00019F0AAEC0FF045501626465017223F5041
:1012E0001624416E40501720426E41C024F042C087
:1012F00025F07CEC09F01200020E2A6EBC0E296E5D
:10130000020E2C6EBC0E2B6E010E276E010E286E87
:1013100025AE23D024C016F025C017F0000E196E9C
:101320000F0E186EAAEC0FF016C01CF017C01DF0BF
:10133000000E1F6E100E1E6E1BEC0DF01C502926A9
:101340001D502A2224C01CF025C01DF0000E1F6E67
:10135000100E1E6E1BEC0DF022D024C01CF025C018
:101360001DF0000E1F6E100E1E6E1BEC0DF01C50BB
:1013700029261D502A2224C016F025C017F0000E81
:10138000196E0F0E186EAAEC0FF016C01CF017C0E5
:101390001DF0000E1F6E100E1E6E1BEC0DF01C508B
:1013A0002B5E1D502C5A00D02AAE10D0000E276E96
:1013B00029C016F02AC017F0FF0E196E1868AAECA3
:1013C0000FF016C029F017C02AF000D02ABE0BD0AB
:1013D000210E295C030E2A58D8A005D0030E2A6ED0
:1013E000200E296E00D029C00FF02AC010F013EC97
:1013F0000FF02750D8A402D0829002D0828000D073
:1014000082B003D0266A262A01D0266A2646845056
:101410002618FD0B2618846E2CAE10D0000E286EF8
:101420002BC016F02CC017F0FF0E196E1868AAEC2E
:101430000FF016C02BF017C02CF000D02CBE0BD034
:10144000210E2B5C030E2C58D8A005D0030E2C6E59
:10145000200E2B6E00D02BC00FF02CC010F030EC03
:101460000FF02850D8A402D0829A02D0828A00D0ED
:1014700082BA03D0266A262A01D0266A845026180A
:10148000FE0B2618846E12003CC039F03DC03AF0C5
:101490003EC03BF066EC0DF0110E0F6E100E106E9C
:1014A00069EC0FF00400020E4A6E3F0E496E500EBA
:1014B00005EC10F0000E106E000E0F6EA2EC10F096
:1014C000F29400D0BCEC0BF025EC10F033D0010E00
:1014D0002FD0020E2DD0030E2BD0040E29D03B6846
:1014E00050D0FE0E25D0FD0E23D0FC0E21D0010ED3
:1014F0004E6E000E516E000E506E010E4C6E000EC0
:101500004B6E3FD0010E4E6E000E516E000E506EAF
:10151000010E4B6E000E4C6E34D0390E316E000E43
:10152000326E03EC0BF02DD074EC0CF02AD0000ED0
:101530003B6E27D04D501F0B000AD8B4EED7010ADE
:10154000D8B4CBD7030AD8B4C4D7010AD8B4C3D708
:10155000050AD8B4BCD7010AD8B4C9D70F0AD8B481
:10156000C0D7040AD8B4BBD71C0AD8B4BED7080A5F
:10157000D8B4B9D7040AD8B4C5D7030AD8B4D4D7D5
:10158000D6D7F2A42DD0474A482A434A442A4E507F
:10159000D8B424D0504A512A0B0EF66E100EF76EB6
:1015A000000EF86E0900F5CF37F00900F5CF38F0DE
:1015B000373A383AF00E381637500F0B3812F00E13
:1015C00037163750505C38505158D8B007D0000EFD
:1015D0004C6E000E4B6E000E4E6E00D0F29400D09A
:1015E000AEEC0DF0390E2D6E000E2E6E41EC08F0B3
:1015F0000400C1EC10F00009D8B464D715EC10F069
:1016000061D70CEF00F020EE02F03150D9263250B5
:10161000DA22DF50800A7E0FD8B00ED020EE01F023
:101620003150D9263250DA22DF50800A7E0FD8B0EE
:1016300003D04C50D8B404D0010EC8EC0CF09BD0B1
:1016400020EE02F03150D9263250DA22DF50800AE3
:10165000810FD8A00ED020EE01F03150D9263250A3
:10166000DA22DF50800A810FD8A003D04B50D8B4C3
:1016700004D0000EC8EC0CF07ED0000E516E000EAF
:10168000506E10D0BCEC0BF0AEEC0DF0000E256EE1
:10169000000E246E7CEC09F0F2A404D0504A512ACA
:1016A000F29400D04D501F0B0009D8A41DD0070E96
:1016B000F66E100EF76E000EF86E0900F5CF33F0DF
:1016C0000900F5CF34F0333A343AF00E3416335083
:1016D0000F0B3412F00E33163350505C3450515807
:1016E000D8B002D0CFD700D04D501F0B0009D8A4DE
:1016F00042D0E4EC0FF0410E336EEE0EE82EFED732
:10170000332EFCD700D0060E256E400E246E7CECE6
:1017100009F0000E366E000E356E0D0EF66E100ED0
:10172000F76E000EF86E0900F550355C0900F550B3
:101730003658D8B019D001D017D00B0E336E5F0ECB
:10174000E82EFED7332EFCD700D0354A362AE5D70F
:101750000BD0BCEC0BF0AEEC0DF0000E256E000EC5
:10176000246E7CEC09F000D04D501F0B0009D8A46A
:1017700002D0EFD700D01200870E96EC0FF0135076
:10178000495C14504A58D8B003D0166A162A01D0C2
:10179000166A163A4D501618EF0B16184D6E8F0E2E
:1017A00096EC0FF01350495C14504A58D8B003D04F
:1017B000166A162A01D0166A1646164616464D5067
:1017C0001618F70B16184D6E970E96EC0FF0135077
:1017D000495C14504A58D8B003D0166A162A01D072
:1017E000166A164616464D501618FB0B16184D6E07
:1017F0009F0E96EC0FF01350495C14504A58D8B025
:1018000003D0166A162A01D0166A16464D501618CD
:10181000FD0B16184D6EA70E96EC0FF01350495C99
:1018200014504A58D8B003D0166A162A01D0166A46
:101830004D501618FE0B16184D6E1200000E146E49
:10184000000E156E000E166E000E176E000E186E4E
:10185000000E196E000E1A6E000E1B6EC4EC10F016
:101860007A0E0F6E100E106E69EC0FF0839083826B
:101870008384838683882DD00400300E181817E1E6
:10188000750E19181A101B10D8A411D0000E186E5E
:10189000000E196E000E1A6E000E1B6E010E14263D
:1018A000000E152216221722839083820CD0980EE8
:1018B000181809E13A0E19181A101B10D8A403D0F1
:1018C0008380839200D0010E1826000E19221A225E
:1018D0001B2217501610151006E10A0E145CD8B022
:1018E00002D0CAD700D01200000E516E000E506E0A
:1018F00010D0BCEC0BF0AEEC0DF0000E256E000E1F
:10190000246E7CEC09F0F2A404D0504A512AF294DF
:1019100000D0000E2F6E090EF66E100EF76E000E40
:10192000F86E0900F5CF2DF00900F5CF2EF02D3A15
:101930002E3AF00E2E162D500F0B2E12F00E2D16E5
:101940002D50505C2E505158D8B003D0010E2F6E40
:1019500000D04D502F18E00B2F184D6E4D501F0B1F
:101960000009D8A4C6D74D804D824D844D864D8840
:10197000E4EC0FF005D0BCEC0BF0AEEC0DF000D0B9
:101980004D804D824D844D864D88F5D700D0120094
:101990002E6EE4EC0FF0410E2D6EEE0EE82EFED70B
:1019A0002D2EFCD700D02E50D8B420D0060E306E8D
:1019B000400E2F6E10D0BCEC0BF0AEEC0DF02FC033
:1019C00024F030C025F07CEC09F04DA404D02F06A3
:1019D000D8A0300600D04DB606D02F503010D8B465
:1019E00002D0E9D700D0000E4C6E1ED0F90E306E3A
:1019F000C00E2F6E0FD0BCEC0BF0AEEC0DF02FC074
:101A000024F030C025F07CEC09F04DA403D02F4A1F
:101A1000302A00D04DB206D02F503010D8B402D0AA
:101A2000EAD700D0000E4B6E000E4E6E000E466ED2
:101A3000000E456E1200000E216E1FAE07D01E6C08
:101A40001F1ED8B01F2A010E216E00D01DAE07D078
:101A50001C6C1D1ED8B01D2A010E211A00D0000ECC
:101A6000236E000E226E1E501F10D8B421D0010E1E
:101A7000206E05D0D8901E361F36202A00D01FBEFB
:101A800002D0F8D700D0D890223623361E501C5CE6
:101A90001F501D58D8A006D01E501C5E1F501D5A46
:101AA000228000D0D8901F321E32202EECD700D0DA
:101AB0002150D8B405D0226C231ED8B0232A00D0E0
:101AC00022C01CF023C01DF000D012004D904D929A
:101AD0004D944D964D98D08EF29EF29C80EC0FF076
:101AE000CAEC10F0000E106E100E0F6E3C0E2CECB7
:101AF0000EF0D3EC10F0000E836EF2EC0EF0B3ECAF
:101B000010F0D0EC10F0CDEC10F0C7EC10F06EEC53
:101B100010F00C0E0F6E0A0E106EA70E95EC0EF064
:101B2000829A849082908492060E60EC10F0C70E28
:101B300099EC10F0C70E4DEC0FF0000E106E000E79
:101B40000F6E30EC0FF0000E106E000E0F6E13ECE7
:101B50000FF0020E4A6E000E496E12004DB803D00F
:101B60000F6A0F2A01D00F6A83500F18FE0B0F184F
:101B7000836E4DB603D00F6A0F2A01D00F6A0F464D
:101B800083500F18FD0B0F18836E4DB403D00F6AEE
:101B90000F2A01D00F6A0F460F4683500F18FB0B18
:101BA0000F18836E4DB203D00F6A0F2A01D00F6A4F
:101BB0000F460F460F4683500F18F70B0F18836E12
:101BC0004DB003D00F6A0F2A01D00F6A0F3A83502D
:101BD0000F18EF0B0F18836E12000600EACF04F007
:101BE000E1CF05F0E2CF06F0D9CF07F0DACF08F069
:101BF000F3CF09F0F4CF0AF0F6CF0BF0F7CF0CF0EB
:101C0000F8CF0DF0F5CF0EF0A19492689368946828
:101C10009568030E966E010E4F6EA094D2980EC07A
:101C2000F5FF0DC0F8FF0CC0F7FF0BC0F6FF0AC0B0
:101C3000F4FF09C0F3FF08C0DAFF07C0D9FF06C0F0
:101C4000E2FF05C0E1FF04C0EAFF03C0E9FF02C0F4
:101C5000FBFF01C0FAFF1100116E000EAC6E000E0A
:101C6000AB6E11A002D0AC8800D011A203D0AC8C16
:101C7000AB8C00D011A402D0AC8E00D011A602D043
:101C8000AB8802D0AB8A00D011B8AC849E9811AA60
:101C900002D0AB8600D011AC02D09D8A01D09D9AB3
:101CA0009E9A11AE02D09D8801D09D980FC0AFFFC3
:101CB0001050B06EAC8AAB8E949C948EACB8ACBE17
:101CC00002D0948C00D01200000E0F6E000E106E29
:101CD000000E116E000E126E0400300E0F1811E18E
:101CE000750E101811101210D8A40BD0000E0F6E24
:101CF000000E106E000E116E000E126E8390838225
:101D00000CD0980E0F1809E13A0E1018111012108D
:101D1000D8A403D08380839200D0010E0F26000E3A
:101D2000102211221222D8D71200136E000EC26E9A
:101D3000000EC06ED8900F303C0BC26E0FC011F079
:101D4000113AF00E1116300E111610500F0B111023
:101D5000C16E13C011F0D8901136D8901136380EDC
:101D6000111613C012F0123A0F0E1216070E1216A9
:101D70001350800B12101110C06E0FAE03D09E9C3A
:101D80009D8CF28CC2801200000E146E000E136E39
:101D900011501210D8B421D0010E156E05D0D89074
:101DA00011361236152A00D012BE02D0F8D700D054
:101DB000D8901336143611500F5C12501058D8A01A
:101DC00006D011500F5E1250105A138000D0D890D8
:101DD00012321132152EECD700D013C00FF014C000
:101DE00010F01200D1EC0FF00009D8B403D01EECB3
:101DF0000CF018D07AEC10F00009D8B403D0F5EC50
:101E00000FF010D0BEEC0FF00009D8B403D044ECB2
:101E100010F008D0FCAE03D035EC10F003D052EC3B
:101E200010F000D012000FC011F010C012F0060E1A
:101E3000D89011361236E82EFBD711C013F012C01D
:101E400014F014C0BBFF13C011F0D8901132D89019
:101E50001132300E1116BA50CF0B1110BA6E12009B
:101E60000FC011F010C012F0060ED89011361236C5
:101E7000E82EFBD711C013F012C014F014C0BEFF3F
:101E800013C011F0D8901132D8901132300E1116C3
:101E9000BD50CF0B1110BD6E12000F6E0C0EBA6E3E
:101EA000050EF66E000EF76E300EF86E080000019B
:101EB000F5A002D0106802D0000E106E1050D8B4F9
:101EC00002D0949201D09396CA940FC0CBFFCA84DB
:101ED0001200110E116E000E126E04D01350D8ECC9
:101EE00010F000D00FC0F6FF10C0F7FF0F4A102A05
:101EF000F86A0800F5CF13F01350D8A4EFD71200FA
:101F0000D38CD38AD3889B8C000E106E000E0F6E7C
:101F100010BE08D0F40E0F5C010E1058D8B005D0DA
:101F200001D003D00F4A102AF3D71200156E1550B6
:101F300085EC10F0D6EC10F000D0BAEC10F00009EF
:101F4000D8A4FBD7ABEC10F00FC013F010C014F006
:101F500000D0120016501802F3CF1AF0F4CF1BF085
:101F600016501902F3501B2617501802F3501B2667
:101F70001AC016F01BC017F000D01200D0A20ED06D
:101F8000D0A40AD0D0A006D0D0A602D003D008D0CA
:101F9000010E06D0000E04D0000E02D0000E00D0BC
:101FA0001200D0B20ED0D0A40AD0D0B006D0D0B695
:101FB00002D003D008D0010E06D0000E04D0000ECF
:101FC00002D0000E00D01200030E106E200E0F6E15
:101FD00030EC0FF0030E106E200E0F6E13EC0FF0AE
:101FE000849282908490829A1200C4EC10F0740E55
:101FF0000F6E100E106E69EC0FF083808382838465
:102000008386839864EC0EF012000F6E0F507F0BE6
:10201000D56E000ED76E000ED66EF2940FAE02D0C3
:10202000F28A01D0F29AD58E12006D0E0F6E100E4C
:10203000106E69EC0FF0D3EC10F0839083828384F0
:102040008396838864EC0EF012004DB84DB603D031
:102050004DA44DB24D984DB04DB206D04DB402D006
:102060004DA602D04D9000D01200FC9E5B0E0F6E6C
:10207000100E106E69EC0FF0839083828394838638
:10208000839864EC0EF01200640E0F6E100E106E4A
:1020900069EC0FF08390838283948386838864EC59
:1020A0000EF01200510E0F6E100E106E69EC0FF054
:1020B0008390838283948396839864EC0EF012005D
:1020C0000F6E0F50FB0BCA6E000ECC6E9E920FAEC1
:1020D00002D09D8201D09D92CA841200D08ED288F7
:1020E000A284D29ED286D284D282D290A194A0849D
:1020F000F28E1200D0B006D0D0B202D003D004D0FD
:10210000010E02D0000E00D01200106EC2CF0FF0F0
:10211000C30E0F16D89010303C0B0F10C26E120079
:1021200000EE3CF0160EEE6AE806FDE1000144EF19
:102130000AF00F6E0C0EBD129494CA940FC0CBFF20
:10214000CA8412000FC011F010C012F012C0D7FFE5
:1021500011C0D6FF1200C450116EC3500F6E11C0D3
:1021600010F000D0120094909492949494969498C5
:10217000949A1200C2A202D0010E02D0000E00D02A
:1021800012004F5000D01200D082D0801200000EFA
:10219000966E1200949C948E1200C00E936E1200E4
:1021A000EF0E926E1200600E956E1200C282120047
:0221B00012001B
:020000040020DA
:08000000FFFFFFFFFFFFFFFF00
:020000040030CA
:0E000000FF080306FF0381FF0FC00FE00F4053
:00000001FF
