:040000000CEF00F011
:10000800FACF01F0FBCF02F0E9CF03F0FCED0CF0E2
:040018008FEF0FF067
:1010000000E0FC2BFD76FD00008A02D502200300E3
:1010100000000A0D4B77616E746C656E2041505371
:1010200043313239392073696D706C652063757294
:10103000766520666F6C6C6F776572202D2D20773A
:10104000697468206572726F7220636F6465730AD9
:101050000D00203C72657365743E20003C53544B78
:1010600046554C3E003C57445420544F3E005C3C97
:101070004C56443E003C424F523E003C504F523E84
:10108000000020EE01F02650D9262750DA22DF504A
:101090003C6EF2A47AD0364A372AF29433BE06D098
:1010A000400E325C060E3358D8B008D033BE06D09E
:1010B000410E325C060E3358D8B024D033BE0FD068
:1010C000400E325C060E3358D8A009D020EE01F055
:1010D0002650D9262750DA22000EDBBE13D033AEBD
:1010E00054D0C10E325CF90E3358D8B04ED020EE39
:1010F00001F02650D9262750DA22DF50800A7F0FD0
:10110000D8A043D035BE06D0C90E345C0C0E35587D
:10111000D8B008D035AE2AD0370E345CF30E35582F
:10112000D8B024D035BE0FD0C90E345C0C0E355863
:10113000D8A009D020EE01F02650D9262750DA2277
:10114000000EDBBE13D035AE20D0370E345CF30E6C
:101150003558D8B01AD020EE01F02650D9262750A5
:10116000DA22DF50800A7F0FD8A00FD020EE01F0E6
:101170002650D9262750DA22DF50286E28503426F0
:10118000000E28BEFF0E352200D020EE01F02650C2
:10119000D9262750DA2226C0E1FF27C0E2FFDE5021
:1011A000E618D8A406D0850E365C1E0E3758D8A097
:1011B00041D026C0D9FF27C0DAFFDF50286E296A48
:1011C00028BE2906281E291E284A292A20EE01F0B9
:1011D0002650D9262750DA22DF502A6E28502A249A
:1011E0000F6E000E2ABEFF0E2920106E7F0E126EAB
:1011F0001168B9EC0EF00FC015F010C016F036C033
:1012000017F037C018F0D3EC0DF015C030F016C051
:1012100031F0000E376E000E366E20EE01F02650D3
:10122000D9262750DA2226C0E1FF27C0E2FFDFCF10
:10123000E7FF00D034C015F035C016F0100EF66E82
:10124000100EF76E000EF86E0800F550176E186A53
:101250002AEC0CF0110EF66E100EF76E000EF86E02
:101260000800F5503C021550F3261650F42230C009
:1012700015F031C016F00F0EF66E100EF76E000E60
:10128000F86E0800F550176E186A2AEC0CF015502D
:10129000F324326E1650F420336E32C01DF033C08A
:1012A0001EF054EC09F01200020E236EBC0E226EEA
:1012B000020E256EBC0E246E010E206E010E216EF4
:1012C0001EAE23D01DC00FF01EC010F0000E126E17
:1012D0000F0E116EB9EC0EF00FC015F010C016F025
:1012E000000E186E100E176E2AEC0CF01550222608
:1012F000165023221DC015F01EC016F0000E186EE9
:10130000100E176E2AEC0CF022D01DC015F01EC076
:1013100016F0000E186E100E176E2AEC0CF0155019
:101320002226165023221DC00FF01EC010F0000E02
:10133000126E0F0E116EB9EC0EF00FC015F010C04A
:1013400016F0000E186E100E176E2AEC0CF01550E9
:10135000245E1650255A00D023AE10D0000E206E09
:1013600022C00FF023C010F0FF0E126E1168B9EC0E
:101370000EF00FC022F010C023F000D023BE0BD01F
:10138000210E225C030E2358D8A005D0030E236E35
:10139000200E226E00D022C00FF023C010F022ECED
:1013A0000EF02050D8A402D0829002D0828000D0CB
:1013B00082B003D01F6A1F2A01D01F6A1F468450C3
:1013C0001F18FD0B1F18846E25AE10D0000E216E65
:1013D00024C00FF025C010F0FF0E126E1168B9EC9A
:1013E0000EF00FC024F010C025F000D025BE0BD0A9
:1013F000210E245C030E2558D8A005D0030E256EBF
:10140000200E246E00D024C00FF025C010F03FEC59
:101410000EF02150D8A402D0829A02D0828A00D045
:1014200082BA03D01F6A1F2A01D01F6A84501F1876
:10143000FE0B1F18846E12003AC02EF03BC02FF036
:1014400075EC0CF0120E0F6E100E106E78EC0EF0A4
:101450000400020E396E6C0E386E510E14EC0FF053
:10146000000E106E000E0F6EA1EC0FF0F29400D083
:1014700072EC0BF01FD0010E1BD0020E19D0030E20
:1014800017D0040E15D02F683FD0FE0E11D0FD0EE0
:101490000FD0FC0E0DD000D0010E97EC0AF000D05A
:1014A000000E97EC0AF02F500FEC0BF000D0000E5E
:1014B0002F6E2AD03D501F0B000AD8B4F4D7010A72
:1014C000D8B4DFD7030AD8B4D8D7010AD8B4D7D74D
:1014D000060AD8B4E1D7030AD8B4CDD7010AD8B4E4
:1014E000DBD70F0AD8B4D1D7040AD8B4CCD71C0A9A
:1014F000D8B4CFD7040AD8B4D3D70C0AD8B4C7D736
:10150000040AD8B4CDD7D3D7BDEC0CF02E0E266E7E
:10151000000E276E41EC08F00400C0EC0FF000094B
:10152000D8B4A6D724EC0FF0A3D70CEF00F0286EA8
:10153000000E376E000E366E20D0100EF66E100EB6
:10154000F76E000EF86E0800F5500F6E106A34C08A
:1015500011F035C012F0B9EC0EF00FC026F010C03B
:1015600027F026C01DF027C01EF054EC09F0F2A4AD
:1015700004D0364A372AF29400D03D501F0B0009A0
:10158000D8B409D0850E3618D8E11E0E3718D8B455
:1015900002D0D3D700D03D501F0B0009D8A43AD0B9
:1015A000F3EC0EF02850D8B419D0060E2A6E400E77
:1015B000296E0CD029C01DF02AC01EF054EC09F091
:1015C0003DA404D02906D8A02A0600D03DB61ED0DE
:1015D00029502A10D8B41AD0EDD718D0F90E2A6E97
:1015E000C00E296E0BD029C01DF02AC01EF054EC8D
:1015F00009F03DA403D0294A2A2A00D03DB206D0E2
:1016000029502A10D8B402D0EED700D0000E356E83
:10161000000E346E000E376E000E366E12002C6E09
:101620002C50800A7E0FD8A004D0010E97EC0AF04F
:1016300058D02C50800A810FD8B004D0000E97ECFF
:101640000AF04FD0000E376E000E366E0CD0000E32
:101650001E6E000E1D6E54EC09F0F2A404D0364A42
:10166000372AF29400D03D501F0B0009D8A409D0AE
:10167000850E3618ECE11E0E3718D8B402D0E7D725
:1016800000D03D501F0B0009D8A426D0F3EC0EF07B
:10169000060E1E6E400E1D6E54EC09F0000E2D6EEF
:1016A0004F0E2D6401D011D0820E2B6EDE0EE82E6F
:1016B000FED72B2EFCD72D2AF3D707D0000E1E6E97
:1016C000000E1D6E54EC09F000D03D501F0B0009B8
:1016D000D8A402D0F3D700D0000E376E000E366EBD
:1016E00000D01200870EA5EC0EF01350385C145099
:1016F0003958D8B003D0166A162A01D0166A163A9D
:101700003D501618EF0B16183D6E8F0EA5EC0EF01F
:101710001350385C14503958D8B003D0166A162AC2
:1017200001D0166A1646164616463D501618F70B97
:1017300016183D6E970EA5EC0EF01350385C145041
:101740003958D8B003D0166A162A01D0166A164640
:1017500016463D501618FB0B16183D6E9F0EA5EC55
:101760000EF01350385C14503958D8B003D0166AB4
:10177000162A01D0166A16463D501618FD0B16188B
:101780003D6EA70EA5EC0EF01350385C145039587E
:10179000D8B003D0166A162A01D0166A3D50161822
:1017A000FE0B16183D6E1200000E146E000E156E24
:1017B000000E166E000E176E000E186E000E196EDB
:1017C000000E1A6E000E1B6EC3EC0FF07B0E0F6E38
:1017D000100E106E78EC0EF08390838283848386E3
:1017E00083882DD00400300E181817E1750E1918D3
:1017F0001A101B10D8A411D0000E186E000E196E0E
:10180000000E1A6E000E1B6E010E1426000E15221D
:1018100016221722839083820CD0980E181809E1A3
:101820003A0E19181A101B10D8A403D08380839283
:1018300000D0010E1826000E19221A221B22175062
:101840001610151006E10A0E145CD8B002D0CAD7E3
:1018500000D01200000E1A6E18AE07D0176C181EBA
:10186000D8B0182A010E1A6E00D016AE07D0156C2B
:10187000161ED8B0162A010E1A1A00D0000E1C6EC1
:10188000000E1B6E17501810D8B421D0010E196E1F
:1018900005D0D89017361836192A00D018BE02D0B5
:1018A000F8D700D0D8901B361C361750155C18504E
:1018B0001658D8A006D01750155E1850165A1B801F
:1018C00000D0D89018321732192EECD700D01A5009
:1018D000D8B405D01B6C1C1ED8B01C2A00D01BC06D
:1018E00015F01CC016F000D012003D903D923D94C2
:1018F0003D963D98D08EF29EF29C8FEC0EF0C9EC96
:101900000FF0000E106E100E0F6E3C0E3BEC0DF043
:10191000D2EC0FF0000E836E01EC0EF0B2EC0FF083
:10192000CFEC0FF0CCEC0FF0C6EC0FF06DEC0FF03D
:101930000C0E0F6E0A0E106EA70EA4EC0DF0829A1C
:10194000849082908492060E5FEC0FF0C70E98ECA4
:101950000FF0C70E5CEC0EF0000E106E000E0F6E56
:101960003FEC0EF0000E106E000E0F6E22EC0EF02B
:10197000020E396E000E386E12003DB803D00F6AA9
:101980000F2A01D00F6A83500F18FE0B0F18836EB9
:101990003DB603D00F6A0F2A01D00F6A0F4683505D
:1019A0000F18FD0B0F18836E3DB403D00F6A0F2A7A
:1019B00001D00F6A0F460F4683500F18FB0B0F180C
:1019C000836E3DB203D00F6A0F2A01D00F6A0F4613
:1019D0000F460F4683500F18F70B0F18836E3DB05C
:1019E00003D00F6A0F2A01D00F6A0F3A83500F18E5
:1019F000EF0B0F18836E12000600EACF04F0E1CF60
:101A000005F0E2CF06F0D9CF07F0DACF08F0F3CF38
:101A100009F0F4CF0AF0F6CF0BF0F7CF0CF0F8CFC7
:101A20000DF0F5CF0EF0A1949268936894689568D4
:101A3000030E966E010E3E6EA094D2980EC0F5FF76
:101A40000DC0F8FF0CC0F7FF0BC0F6FF0AC0F4FF93
:101A500009C0F3FF08C0DAFF07C0D9FF06C0E2FFE4
:101A600005C0E1FF04C0EAFF03C0E9FF02C0FBFFBD
:101A700001C0FAFF1100116E000EAC6E000EAB6ECD
:101A800011A002D0AC8800D011A203D0AC8CAB8CDA
:101A900000D011A402D0AC8E00D011A602D0AB8829
:101AA00002D0AB8A00D011B8AC849E9811AA02D0A3
:101AB000AB8600D011AC02D09D8A01D09D9A9E9A2F
:101AC00011AE02D09D8801D09D980FC0AFFF10507D
:101AD000B06EAC8AAB8E949C948EACB8ACBE02D087
:101AE000948C00D01200000E0F6E000E106E000ECF
:101AF000116E000E126E0400300E0F1811E1750EFB
:101B0000101811101210D8A40BD0000E0F6E000E7A
:101B1000106E000E116E000E126E839083820CD038
:101B2000980E0F1809E13A0E101811101210D8A4CF
:101B300003D08380839200D0010E0F26000E102266
:101B400011221222D8D71200136E000EC26E000EA0
:101B5000C06ED8900F303C0BC26E0FC011F0113A1E
:101B6000F00E1116300E111610500F0B1110C16E21
:101B700013C011F0D8901136D8901136380E1116C6
:101B800013C012F0123A0F0E1216070E121613504F
:101B9000800B12101110C06E0FAE03D09E9C9D8C56
:101BA000F28CC2801200000E1A6E000E196E1750D1
:101BB0001810D8B421D0010E1B6E05D0D89017365E
:101BC00018361B2A00D018BE02D0F8D700D0D89003
:101BD00019361A361750155C18501658D8A006D06A
:101BE0001750155E1850165A198000D0D890183228
:101BF00017321B2EECD700D019C015F01AC016F002
:101C00001200E0EC0EF00009D8B403D0D4EC0BF0D5
:101C100018D079EC0FF00009D8B403D004EC0FF021
:101C200010D0CDEC0EF00009D8B403D043EC0FF087
:101C300008D0FCAE03D034EC0FF003D051EC0FF021
:101C400000D012000FC011F010C012F0060ED89094
:101C500011361236E82EFBD711C013F012C014F063
:101C600014C0BBFF13C011F0D8901132D8901132BC
:101C7000300E1116BA50CF0B1110BA6E12000FC0F1
:101C800011F010C012F0060ED89011361236E82E60
:101C9000FBD711C013F012C014F014C0BEFF13C064
:101CA00011F0D8901132D8901132300E1116BD506B
:101CB000CF0B1110BD6E12000F6E0C0EBA6E050E1A
:101CC000F66E000EF76E300EF86E08000001F5A0FB
:101CD00002D0106802D0000E106E1050D8B402D09E
:101CE000949201D09396CA940FC0CBFFCA8412007D
:101CF000110E116E000E126E04D01350D7EC0FF0BF
:101D000000D00FC0F6FF10C0F7FF0F4A102AF86A84
:101D10000800F5CF13F01350D8A4EFD71200D38CDE
:101D2000D38AD3889B8C000E106E000E0F6E10BEEF
:101D300008D0F40E0F5C010E1058D8B005D001D0B9
:101D400003D00F4A102AF3D71200156E155084ECF9
:101D50000FF0D5EC0FF000D0B9EC0FF00009D8A4CB
:101D6000FBD7AAEC0FF00FC013F010C014F000D096
:101D700012000F501102F3CF13F0F4CF14F00F50F4
:101D80001202F350142610501102F350142613C0FF
:101D90000FF014C010F000D01200D0A20ED0D0A4CA
:101DA0000AD0D0A006D0D0A602D003D008D0010E11
:101DB00006D0000E04D0000E02D0000E00D012009B
:101DC000D0B20ED0D0A40AD0D0B006D0D0B602D0B7
:101DD00003D008D0010E06D0000E04D0000E02D0B1
:101DE000000E00D01200030E106E200E0F6E3FEC9E
:101DF0000EF0030E106E200E0F6E22EC0EF0849289
:101E000082908490829A1200C3EC0FF0750E0F6ED0
:101E1000100E106E78EC0EF08380838283848386AC
:101E2000839873EC0DF012000F6E0F507F0BD56E80
:101E3000000ED76E000ED66EF2940FAE02D0F28A6C
:101E400001D0F29AD58E12006E0E0F6E100E106E2B
:101E500078EC0EF0D2EC0FF083908382838483962B
:101E6000838873EC0DF01200FC9E5C0E0F6E100E5A
:101E7000106E78EC0EF0839083828394838683982F
:101E800073EC0DF01200650E0F6E100E106E78ECF4
:101E90000EF08390838283948386838873EC0DF0A5
:101EA0001200520E0F6E100E106E78EC0EF0839032
:101EB000838283948396839873EC0DF012000F6EE7
:101EC0000F50FB0BCA6E000ECC6E9E920FAE02D06E
:101ED0009D8201D09D92CA841200D08ED288A284A5
:101EE000D29ED286D284D282D290A194A084F28E45
:101EF0001200D0B006D0D0B202D003D004D0010E70
:101F000002D0000E00D01200106EC2CF0FF0C30E30
:101F10000F16D89010303C0B0F10C26E120000EE5E
:101F200030F00F0EEE6AE806FDE100011CEF0AF04A
:101F30000F6E0C0EBD129494CA940FC0CBFFCA84CE
:101F400012000FC011F010C012F012C0D7FF11C064
:101F5000D6FF1200C450116EC3500F6E11C010F0A6
:101F600000D0120094909492949494969498949A99
:101F70001200C2A202D0010E02D0000E00D0120048
:101F80003E5000D01200D082D0801200000E966E1B
:101F90001200949C948E1200C00E936E1200EF0EED
:101FA000926E1200600E956E1200C2821200120034
:020000040020DA
:08000000FFFFFFFFFFFFFFFF00
:020000040030CA
:0E000000FF080306FF0381FF0FC00FE00F4053
:00000001FF
