:040000000CEF00F011
:10000800FACF01F0FBCF02F0E9CF03F067ED0CF077
:04001800E9EF0EF00E
:1010000000E0FC2BFD76FD00008A02D502200300E3
:1010100000000A0D4B77616E746C656E2041505371
:1010200043313239392073696D706C652063757294
:10103000766520666F6C6C6F776572202D2D20773A
:10104000697468206572726F7220636F6465730AD9
:101050000D00203C72657365743E20003C53544B78
:1010600046554C3E003C57445420544F3E005C3C97
:101070004C56443E003C424F523E003C504F523E84
:10108000000020EE01F02650D9262750DA22DF504A
:10109000396EF2A452D0334A342AF29430BE06D0CC
:1010A000400E2F5C060E3058D8B008D030BE06D0A7
:1010B000410E2F5C060E3058D8B011D030AE3DD066
:1010C000C10E2F5CF90E3058D8B037D020EE01F0A9
:1010D0002650D9262750DA22DF50D8B42ED032BE7F
:1010E00006D0C90E315C0C0E3258D8B008D032AEE2
:1010F00017D0370E315CF30E3258D8B011D032AE63
:101100001CD0370E315CF30E3258D8B016D020EE1A
:1011100001F02650D9262750DA22DF50D8B40DD05E
:1011200020EE01F02650D9262750DA22DF50286E13
:1011300028503126000E322200D020EE01F0265039
:10114000D9262750DA2226C0E1FF27C0E2FFDE5071
:10115000E618D8A406D0850E335C1E0E3458D8A0ED
:101160003DD026C0D9FF27C0DAFFDF50286E296A9C
:10117000281E291E284A292A20EE01F02650D926A9
:101180002750DA22DF502A6E2A5028240F6E000ED4
:101190002920106E7F0E126E116824EC0EF00FC025
:1011A00015F010C016F033C017F034C018F03EEC44
:1011B0000DF015C02DF016C02EF0000E346E000E8E
:1011C000336E20EE01F02650D9262750DA2226C0B1
:1011D000E1FF27C0E2FFDFCFE7FF00D031C015F00D
:1011E00032C016F0100EF66E100EF76E000EF86E8E
:1011F0000800F550176E186A95EC0BF0110EF66E9C
:10120000100EF76E000EF86E0800F55039021550FA
:10121000F3261650F4222DC015F02EC016F00F0E36
:10122000F66E100EF76E000EF86E0800F550176E91
:10123000186A95EC0BF01550F3242F6E1650F4201D
:10124000306E2FC01DF030C01EF028EC09F01200E7
:10125000020E236EBC0E226E020E256EBC0E246E94
:10126000010E206E010E216E1EAE23D01DC00FF0A8
:101270001EC010F0000E126E0F0E116E24EC0EF058
:101280000FC015F010C016F0000E186E100E176E7D
:1012900095EC0BF015502226165023221DC015F098
:1012A0001EC016F0000E186E100E176E95EC0BF0A7
:1012B00022D01DC015F01EC016F0000E186E100EC4
:1012C000176E95EC0BF015502226165023221DC0E8
:1012D0000FF01EC010F0000E126E0F0E116E24ECF7
:1012E0000EF00FC015F010C016F0000E186E100EA4
:1012F000176E95EC0BF01550245E1650255A00D051
:1013000023AE10D0000E206E22C00FF023C010F0CC
:10131000FF0E126E116824EC0EF00FC022F010C008
:1013200023F000D023BE0BD0210E225C030E2358E5
:10133000D8A005D0030E236E200E226E00D022C04E
:101340000FF023C010F08DEC0DF02050D8A402D087
:10135000829002D0828000D082B003D01F6A1F2A00
:1013600001D01F6A1F4684501F18FD0B1F18846E82
:1013700025AE10D0000E216E24C00FF025C010F055
:10138000FF0E126E116824EC0EF00FC024F010C096
:1013900025F000D025BE0BD0210E245C030E25586D
:1013A000D8A005D0030E256E200E246E00D024C0D8
:1013B0000FF025C010F0AAEC0DF02150D8A402D0F7
:1013C000829A02D0828A00D082BA03D01F6A1F2A72
:1013D00001D01F6A84501F18FE0B1F18846E120064
:1013E00037C02BF038C02CF0E0EC0BF0120E0F6E73
:1013F000100E106EE3EC0DF00400020E366E6C0E53
:10140000356E510E6EEC0EF0000E106E000E0F6E6B
:10141000FBEC0EF0F29400D0DDEC0AF01CD0010ED3
:1014200018D0020E16D0030E14D0040E12D02C6861
:101430003CD0FE0E0ED0FD0E0CD0FC0E0AD000D01B
:10144000010E68EC0AF000D0000E68EC0AF000D043
:10145000000E2C6E2AD03A501F0B000AD8B4F8D7D1
:10146000010AD8B4E2D7030AD8B4DBD7010AD8B44A
:10147000DAD7060AD8B4E4D7030AD8B4D0D7010A19
:10148000D8B4DED70F0AD8B4D4D7040AD8B4CFD78B
:101490001C0AD8B4D2D7040AD8B4D6D70C0AD8B408
:1014A000CAD7040AD8B4D0D7D3D728EC0CF02B0E67
:1014B000266E000E276E41EC08F004001AEC0FF0C7
:1014C0000009D8B4A9D77EEC0EF0A6D70CEF00F037
:1014D000286E000E346E000E336E20D0100EF66EA5
:1014E000100EF76E000EF86E0800F5500F6E106AC1
:1014F00031C011F032C012F024EC0EF00FC026F013
:1015000010C027F026C01DF027C01EF028EC09F0FF
:10151000F2A404D0334A342AF29400D03A501F0B7C
:101520000009D8B408D0850E335C1E0E3458D8B0EC
:1015300002D0D4D700D0850E335C1E0E3458D8A00C
:101540003BD002D039D034D02850D8B419D0060EB0
:101550002A6E400E296E0CD029C01DF02AC01EF044
:1015600028EC09F03AA404D02906D8A02A0600D015
:101570003AB61ED029502A10D8B41AD0EDD718D0B8
:10158000F90E2A6EC00E296E0BD029C01DF02AC09C
:101590001EF028EC09F03AA403D0294A2A2A00D0E8
:1015A0003AB206D029502A10D8B402D0EED700D0D3
:1015B000000E326E000E316E1200870E10EC0EF02F
:1015C0001350355C14503658D8B003D0166A162A1A
:1015D00001D0166A163A3A501618EF0B16183A6EE2
:1015E0008F0E10EC0EF01350355C14503658D8B0F6
:1015F00003D0166A162A01D0166A164616461646F3
:101600003A501618F70B16183A6E970E10EC0EF0AB
:101610001350355C14503658D8B003D0166A162AC9
:1016200001D0166A164616463A501618FB0B1618C5
:101630003A6E9F0E10EC0EF01350355C1450365875
:10164000D8B003D0166A162A01D0166A16463A5048
:101650001618FD0B16183A6EA70E10EC0EF013506C
:10166000355C14503658D8B003D0166A162A01D00B
:10167000166A3A501618FE0B16183A6E1200000E33
:10168000146E000E156E000E166E000E176E000E14
:10169000186E000E196E000E1A6E000E1B6E1DECF9
:1016A0000FF07B0E0F6E100E106EE3EC0DF08390BA
:1016B00083828384838683882DD00400300E18189B
:1016C00017E1750E19181A101B10D8A411D0000EAE
:1016D000186E000E196E000E1A6E000E1B6E010EB3
:1016E0001426000E152216221722839083820CD016
:1016F000980E181809E13A0E19181A101B10D8A4E0
:1017000003D08380839200D0010E1826000E192288
:101710001A221B2217501610151006E10A0E145C2F
:10172000D8B002D0CAD700D01200000E1A6E18AE80
:1017300007D0176C181ED8B0182A010E1A6E00D0E8
:1017400016AE07D0156C161ED8B0162A010E1A1A3E
:1017500000D0000E1C6E000E1B6E17501810D8B46F
:1017600021D0010E196E05D0D89017361836192AD7
:1017700000D018BE02D0F8D700D0D8901B361C3647
:101780001750155C18501658D8A006D01750155E83
:101790001850165A1B8000D0D89018321732192EC4
:1017A000ECD700D01A50D8B405D01B6C1C1ED8B092
:1017B0001C2A00D01BC015F01CC016F000D012006F
:1017C0003A903A923A943A963A98D08EF29EF29C97
:1017D000FAEC0DF023EC0FF0000E106E100E0F6EF1
:1017E0003C0EA6EC0CF02CEC0FF0000E836E6CECB3
:1017F0000DF00CEC0FF029EC0FF026EC0FF020ECC4
:101800000FF0C7EC0EF00C0E0F6E0A0E106EA70E46
:101810000FEC0DF0829A849082908492060EB9ECBF
:101820000EF0C70EF2EC0EF0C70EC7EC0DF0000E76
:10183000106E000E0F6EAAEC0DF0000E106E000E72
:101840000F6E8DEC0DF0020E366E000E356E12002E
:101850003AB803D00F6A0F2A01D00F6A83500F18CD
:10186000FE0B0F18836E3AB603D00F6A0F2A01D011
:101870000F6A0F4683500F18FD0B0F18836E3AB492
:1018800003D00F6A0F2A01D00F6A0F460F4683500C
:101890000F18FB0B0F18836E3AB203D00F6A0F2A92
:1018A00001D00F6A0F460F460F4683500F18F70BF3
:1018B0000F18836E3AB003D00F6A0F2A01D00F6A57
:1018C0000F3A83500F18EF0B0F18836E12000600AB
:1018D000EACF04F0E1CF05F0E2CF06F0D9CF07F070
:1018E000DACF08F0F3CF09F0F4CF0AF0F6CF0BF01F
:1018F000F7CF0CF0F8CF0DF0F5CF0EF0A194926871
:10190000936894689568030E966E010E3B6EA094E2
:10191000D2980EC0F5FF0DC0F8FF0CC0F7FF0BC04A
:10192000F6FF0AC0F4FF09C0F3FF08C0DAFF07C0E2
:10193000D9FF06C0E2FF05C0E1FF04C0EAFF03C013
:10194000E9FF02C0FBFF01C0FAFF1100116E000E9B
:10195000AC6E000EAB6E11A002D0AC8800D011A20C
:1019600003D0AC8CAB8C00D011A402D0AC8E00D0D4
:1019700011A602D0AB8802D0AB8A00D011B8AC84DB
:101980009E9811AA02D0AB8600D011AC02D09D8ADD
:1019900001D09D9A9E9A11AE02D09D8801D09D984B
:1019A0000FC0AFFF1050B06EAC8AAB8E949C948E7B
:1019B000ACB8ACBE02D0948C00D01200000E0F6EFA
:1019C000000E106E000E116E000E126E0400300E2E
:1019D0000F1811E1750E101811101210D8A40BD0A9
:1019E000000E0F6E000E106E000E116E000E126EC5
:1019F000839083820CD0980E0F1809E13A0E1018CC
:101A000011101210D8A403D08380839200D0010E4D
:101A10000F26000E102211221222D8D71200136EA8
:101A2000000EC26E000EC06ED8900F303C0BC26E1E
:101A30000FC011F0113AF00E1116300E11161050A1
:101A40000F0B1110C16E13C011F0D8901136D89041
:101A50001136380E111613C012F0123A0F0E12166C
:101A6000070E12161350800B12101110C06E0FAE1D
:101A700003D09E9C9D8CF28CC2801200000E1A6EC8
:101A8000000E196E17501810D8B421D0010E1B6E1D
:101A900005D0D890173618361B2A00D018BE02D0B1
:101AA000F8D700D0D89019361A361750155C185050
:101AB0001658D8A006D01750155E1850165A19801F
:101AC00000D0D890183217321B2EECD700D019C096
:101AD00015F01AC016F012004BEC0EF00009D8B445
:101AE00003D03FEC0BF018D0D3EC0EF00009D8B4C3
:101AF00003D05EEC0EF010D038EC0EF00009D8B434
:101B000003D09DEC0EF008D0FCAE03D08EEC0EF0AE
:101B100003D0ABEC0EF000D012000FC011F010C0DB
:101B200012F0060ED89011361236E82EFBD711C0EF
:101B300013F012C014F014C0BBFF13C011F0D89002
:101B40001132D8901132300E1116BA50CF0B11103D
:101B5000BA6E12000FC011F010C012F0060ED8902D
:101B600011361236E82EFBD711C013F012C014F054
:101B700014C0BEFF13C011F0D8901132D8901132AA
:101B8000300E1116BD50CF0B1110BD6E12000F6E2E
:101B90000C0EBA6E050EF66E000EF76E300EF86E75
:101BA00008000001F5A002D0106802D0000E106EEF
:101BB0001050D8B402D0949201D09396CA940FC01A
:101BC000CBFFCA841200110E116E000E126E04D0EB
:101BD000135031EC0FF000D00FC0F6FF10C0F7FF2C
:101BE0000F4A102AF86A0800F5CF13F01350D8A452
:101BF000EFD71200D38CD38AD3889B8C000E106E43
:101C0000000E0F6E10BE08D0F40E0F5C010E1058BF
:101C1000D8B005D001D003D00F4A102AF3D7120054
:101C2000156E1550DEEC0EF02FEC0FF000D013EC1B
:101C30000FF00009D8A4FBD704EC0FF00FC013F08D
:101C400010C014F000D012000F501102F3CF13F0A7
:101C5000F4CF14F00F501202F3501426105011025A
:101C6000F350142613C00FF014C010F000D012006F
:101C7000D0A20ED0D0A40AD0D0A006D0D0A602D038
:101C800003D008D0010E06D0000E04D0000E02D002
:101C9000000E00D01200D0B20ED0D0A40AD0D0B026
:101CA00006D0D0B602D003D008D0010E06D0000E68
:101CB00004D0000E02D0000E00D012001DEC0FF078
:101CC000750E0F6E100E106EE3EC0DF083808382A4
:101CD000838483868398DEEC0CF012000F6E0F5025
:101CE0007F0BD56E000ED76E000ED66EF2940FAE3F
:101CF00002D0F28A01D0F29AD58E12006E0E0F6ECB
:101D0000100E106EE3EC0DF02CEC0FF0839083823C
:101D1000838483968388DEEC0CF01200FC9E5C0EBC
:101D20000F6E100E106EE3EC0DF08390838283949F
:101D300083868398DEEC0CF01200650E0F6E100E99
:101D4000106EE3EC0DF08390838283948386838806
:101D5000DEEC0CF01200520E0F6E100E106EE3EC63
:101D60000DF083908382839483968398DEEC0CF04D
:101D700012000F6E0F50FB0BCA6E000ECC6E9E92BF
:101D80000FAE02D09D8201D09D92CA841200D08EE7
:101D9000D288A284D29ED286D284D282D290A194BA
:101DA000A084F28E1200D0B006D0D0B202D003D000
:101DB00004D0010E02D0000E00D01200106EC2CF6F
:101DC0000FF0C30E0F16D89010303C0B0F10C26EE0
:101DD000120000EE2DF00F0EEE6AE806FDE10001A4
:101DE000F0EF09F00F6E0C0EBD129494CA940FC060
:101DF000CBFFCA8412000FC011F010C012F012C045
:101E0000D7FF11C0D6FF1200C450116EC3500F6E21
:101E100011C010F000D01200949094929494949673
:101E20009498949A1200C2A202D0010E02D0000E21
:101E300000D012003B5000D01200D082D08012009F
:101E4000000E966E1200949C948E1200C00E936E3B
:101E50001200EF0E926E1200600E956E1200C2829A
:041E6000120012005A
:020000040020DA
:08000000FFFFFFFFFFFFFFFF00
:020000040030CA
:0E000000FF080306FF0381FF0FC00FE00F4053
:00000001FF
